:020000040800F2
:105000000050002051A00008D58A0008D78A000867
:10501000E18A0008EB8A0008F58A00080000000019
:10502000000000000000000000000000FF8A0008EF
:10503000018B000800000000038B0008058B0008AE
:10504000A5A00008A5A00008A5A00008698D00087B
:10505000A5A00008A5A00008758B0008958B000886
:10506000B58B0008E98B0008098C0008A5A0000892
:10507000A5A00008A5A00008A5A00008D18D0008E3
:10508000A5A00008A5A00008158B0008A5A0000891
:10509000D58D0008A5A00008A5A00008298C00084F
:1050A000A5A00008A5A00008A5A00008F18C000894
:1050B000398D0008498D0008598D0008458B00087E
:1050C000558B0008A5A00008A5A00008658B000866
:1050D000A5A00008258B0008358B0008A5A00008B6
:1050E000798C0008918D0008A5A000080000000040
:1050F00000000000000000000000000000000000B0
:0C51000000000000000000005FF808F153
:1051100010F8012B11F8013B012A28BF9A42F7D061
:10512000D01A704781F0004102E000BF83F00043D5
:1051300030B54FEA41044FEA430594EA050F08BF32
:1051400090EA020F1FBF54EA000C55EA020C7FEAF6
:10515000645C7FEA655C00F0E2804FEA5454D4EB73
:105160005555B8BF6D420CDD2C4480EA020281EA3D
:10517000030382EA000083EA010180EA020281EA75
:105180000303362D88BF30BD11F0004F4FEA0131C7
:105190004FF4801C4CEA113102D0404261EB4101D6
:1051A00013F0004F4FEA03334CEA133302D052425C
:1051B00063EB430394EA050F00F0A780A4F1010418
:1051C000D5F1200E0DDB02FA0EFC22FA05F2801852
:1051D00041F1000103FA0EF2801843FA05F3594138
:1051E0000EE0A5F120050EF1200E012A03FA0EFCB7
:1051F00028BF4CF0020C43FA05F3C01851EBE371E1
:1052000001F0004507D54FF0000EDCF1000C7EEBFD
:1052100000006EEB0101B1F5801F1BD3B1F5001F3B
:105220000CD349085FEA30004FEA3C0C04F101045A
:105230004FEA445212F5800F80F09A80BCF1004F83
:1052400008BF5FEA500C50F1000041EB045141EA05
:10525000050130BD5FEA4C0C404141EB010111F406
:10526000801FA4F10104E9D191F0000F04BF0146B1
:105270000020B1FA81F308BF2033A3F10B03B3F18F
:1052800020020CDA0C3208DD02F1140CC2F10C021F
:1052900001FA0CF021FA02F10CE002F11402D8BF7D
:1052A000C2F1200C01FA02F120FA0CFCDCBF41EA49
:1052B0000C019040E41AA2BF01EB0451294330BD18
:1052C0006FEA04041F3C1CDA0C340EDC04F11404F5
:1052D000C4F1200220FA04F001FA02F340EA0300CC
:1052E00021FA04F345EA030130BDC4F10C04C4F112
:1052F000200220FA02F001FA04F340EA03002946F2
:1053000030BD21FA04F0294630BD94F0000F83F43B
:10531000801306BF81F480110134013D4EE77FEA1E
:10532000645C18BF7FEA655C29D094EA050F08BF6A
:1053300090EA020F05D054EA000C04BF194610464B
:1053400030BD91EA030F1EBF0021002030BD5FEA8F
:10535000545C05D14000494128BF41F0004130BDB7
:1053600014F580043CBF01F5801130BD01F000450B
:1053700045F0FE4141F470014FF0000030BD7FEA7E
:10538000645C1ABF194610467FEA655C1CBF0B4679
:10539000024650EA013406BF52EA033591EA030F90
:1053A00041F4002130BD00BF90F0000F04BF002188
:1053B000704730B54FF4806404F132044FF00005BB
:1053C0004FF0000150E700BF90F0000F04BF002134
:1053D000704730B54FF4806404F1320410F000459A
:1053E00048BF40424FF000013EE700BF42004FEA95
:1053F000E2014FEA31014FEA02701FBF12F07F4312
:1054000093F07F4F81F06051704792F0000F14BF0E
:1054100093F07F4F704730B54FF4607401F0004552
:1054200021F0004120E700BF50EA010208BF7047A9
:1054300030B54FF000050AE050EA010208BF70479E
:1054400030B511F0004502D5404261EB41014FF407
:10545000806404F132045FEA915C3FF4DCAE4FF00B
:1054600003025FEADC0C18BF03325FEADC0C18BFF2
:10547000033202EBDC02C2F1200300FA03FC20FA43
:1054800002F001FA03FE40EA0E0021FA02F1144490
:10549000C1E600BF70B54FF0FF0C4CF4E06C1CEAA5
:1054A00011541DBF1CEA135594EA0C0F95EA0C0F1A
:1054B00000F0DEF82C4481EA030621EA4C5123EA8D
:1054C0004C5350EA013518BF52EA033541F48011BC
:1054D00043F4801338D0A0FB02CE4FF00005E1FB6F
:1054E00002E506F00042E0FB03E54FF00006E1FBB9
:1054F00003569CF0000F18BF4EF0010EA4F1FF04FC
:10550000B6F5007F64F5407404D25FEA4E0E6D413B
:1055100046EB060642EAC62141EA55514FEAC5204C
:1055200040EA5E504FEACE2EB4F1FD0C88BFBCF5C8
:10553000E06F1ED8BEF1004F08BF5FEA500E50F179
:10554000000041EB045170BD06F0004646EA01013F
:1055500040EA020081EA0301B4EB5C04C2BFD4EB71
:105560000C0541EA045170BD41F480114FF0000E6A
:10557000013C00F3AB8014F1360FDEBF002001F0D8
:10558000004170BDC4F10004203C35DA0C341BDC52
:1055900004F11404C4F1200500FA05F320FA04F024
:1055A00001FA05F240EA020001F0004221F0004158
:1055B00010EBD37021FA04F642EB06015EEA430ECB
:1055C00008BF20EAD37070BDC4F10C04C4F12005FB
:1055D00000FA04F320FA05F001FA04F240EA0200AE
:1055E00001F0004110EBD37041F100015EEA430E7F
:1055F00008BF20EAD37070BDC4F1200500FA05F29F
:105600004EEA020E20FA04F301FA05F243EA02031D
:1056100021FA04F001F0004121FA04F220EA02002C
:1056200000EBD3705EEA430E08BF20EAD37070BD72
:1056300094F0000F0FD101F00046400041EB010152
:1056400011F4801F08BF013CF7D041EA060195F034
:10565000000F18BF704703F00046520043EB0303EE
:1056600013F4801F08BF013DF7D043EA06037047DB
:1056700094EA0C0F0CEA135518BF95EA0C0F0CD0E6
:1056800050EA410618BF52EA4306D1D181EA03012C
:1056900001F000414FF0000070BD50EA410606BF26
:1056A0001046194652EA430619D094EA0C0F02D16B
:1056B00050EA013613D195EA0C0F05D152EA0336B0
:1056C0001CBF104619460AD181EA030101F00041CE
:1056D00041F0FE4141F470014FF0000070BD41F017
:1056E000FE4141F4780170BD70B54FF0FF0C4CF4F1
:1056F000E06C1CEA11541DBF1CEA135594EA0C0F10
:1057000095EA0C0F00F0A7F8A4EB050481EA030E5C
:1057100052EA03354FEA013100F088804FEA033343
:105720004FF0805545EA131343EA12634FEA022211
:1057300045EA111545EA10654FEA00260EF00041D2
:105740009D4208BF964244F1FD0404F5407402D224
:105750005B084FEA3202B61A65EB03055B084FEAB5
:1057600032024FF480104FF4002CB6EB020E75EBB2
:10577000030E22BFB61A754640EA0C005B084FEADA
:105780003202B6EB020E75EB030E22BFB61A754657
:1057900040EA5C005B084FEA3202B6EB020E75EBA2
:1057A000030E22BFB61A754640EA9C005B084FEA1A
:1057B0003202B6EB020E75EB030E22BFB61A754627
:1057C00040EADC0055EA060E18D04FEA051545EA16
:1057D00016754FEA06164FEAC30343EA52734FEABF
:1057E000C2025FEA1C1CC0D111F4801F0BD141EA38
:1057F00000014FF000004FF0004CB6E711F4801F9D
:1058000004BF01430020B4F1FD0C88BFBCF5E06F7C
:105810003FF6AFAEB5EB030C04BFB6EB020C5FEA8C
:10582000500C50F1000041EB045170BD0EF0004EE1
:105830004EEA113114EB5C04C2BFD4EB0C0541EA13
:10584000045170BD41F480114FF0000E013C90E610
:1058500045EA060E8DE60CEA135594EA0C0F08BFD4
:1058600095EA0C0F3FF43BAF94EA0C0F0AD150EAD3
:1058700001347FF434AF95EA0C0F7FF425AF104666
:1058800019462CE795EA0C0F06D152EA03353FF48E
:10589000FDAE1046194622E750EA410618BF52EA0B
:1058A00043067FF4C5AE50EA41047FF40DAF52EADF
:1058B00043057FF4EBAE12E74FF0FF3C06E000BF7C
:1058C0004FF0010C02E000BF4FF0010C4DF804CD89
:1058D0004FEA410C7FEA6C5C4FEA430C18BF7FEA49
:1058E0006C5C1BD001B050EA410C0CBF52EA430C77
:1058F00091EA030F02BF90EA020F0020704710F1F7
:10590000000F91EA030F58BF994208BF90422CBF85
:10591000D8176FEAE37040F0010070474FEA410C7E
:105920007FEA6C5C02D150EA013C07D14FEA430C9C
:105930007FEA6C5CD6D152EA033CD3D05DF8040B0D
:10594000704700BF8446104662468C46194663463F
:1059500000E000BF01B5FFF7B7FF002848BF10F116
:10596000000F01BD4DF808EDFFF7F4FF0CBF01205B
:1059700000205DF808FB00BF4DF808EDFFF7EAFFD7
:1059800034BF012000205DF808FB00BF4DF808ED92
:10599000FFF7E0FF94BF012000205DF808FB00BF87
:1059A0004DF808EDFFF7CEFF94BF012000205DF811
:1059B00008FB00BF4DF808EDFFF7C4FF34BF01201E
:1059C00000205DF808FB00BF4FEA410212F500120B
:1059D00015D211D56FF47873B3EB625212D94FEA36
:1059E000C12343F0004343EA505311F0004F23FA20
:1059F00002F018BF404270474FF00000704750EA75
:105A0000013005D111F0004008BF6FF00040704731
:105A10004FF00000704700BF014B0360704700BFAC
:105A2000B85F0108014B0360704700BFD05F0108F9
:105A300010B5034B0446036000F074FE204610BD11
:105A4000B85F010810B5034B0446036000F06AFE1E
:105A5000204610BDD05F010830B50546084600213C
:105A600091B081540EF065F829460446684601F06D
:105A700005FF42490CA801F023FF41490CA801F0A1
:105A800041FF014604A801F01BFF0CA801F0B4FE81
:105A9000684604A901F05EFF20B13A48022122467F
:105AA00004F03FFA354908A801F00AFF364908A872
:105AB00001F028FF01460CA801F002FF0CA904A880
:105AC00001F0EFFE0CA801F097FE08A801F094FE8B
:105AD000684604A901F03EFF20B12A480121224670
:105AE00004F01FFA254908A801F0EAFE274908A892
:105AF00001F008FF01460CA801F0E2FE0CA904A881
:105B000001F0CFFE0CA801F077FE08A801F074FEAA
:105B1000684604A901F01EFF20B11A48032122465D
:105B200004F0FFF9154908A801F0CAFE184908A8B1
:105B300001F0E8FE01460CA801F0C2FE0CA904A881
:105B400001F0AFFE0CA801F057FE08A801F054FECA
:105B5000684604A901F0FEFE20B10A480021224651
:105B600004F0DFF9074803F0A3FF04A801F044FEA6
:105B7000684601F041FE11B030BD00BF7C0400203A
:105B8000F48901088C040020FE890108088A0108B4
:105B9000128A0108F0B58FB002AF02F0F5FB02F0F7
:105BA00007FB18B9642001F099FAF8E700200146D4
:105BB00001F07CF90120022101F078F90220014670
:105BC000924C01F073F90320022101F06FF90420D7
:105BD000022101F06BF91421FA224FF47A7304F1D7
:105BE0001000A162E2622363A164E2642365A166FE
:105BF000E2662367C4F88810C4F88C20C4F890309B
:105C000003F04AFF04F1100003F052FFFF260021C9
:105C10000025009604F110000A460B4604F064F9D2
:105C2000009504F110002A463346012104F05CF986
:105C3000009504F1100032462B46022104F054F97D
:105C400032463346009504F11000032104F04CF96C
:105C500004F1100003F02CFF6D4B6E4A0095019388
:105C600004F1A0002B466C4903F03CFD214607F1EE
:105C7000200001F025FE07F12000684901F042FEF6
:105C80000146384601F01CFE07F1200001F0B4FD8A
:105C9000BA68384602F1080323F00703ADEB030DA1
:105CA00002AE2B460132314601F062FE314604F16C
:105CB000A00003F092FD214607F1100001F000FE64
:105CC00007F11000564901F01DFE014607F12000C2
:105CD00001F0F6FD07F12001384601F0E2FD07F181
:105CE000200001F089FD07F1100001F085FDBA6880
:105CF0002B4601323846314601F03AFE314604F176
:105D0000A00003F06AFD214607F1100001F0D8FD64
:105D100007F11000434901F0F5FD014607F12000AD
:105D200001F0CEFD07F12001384601F0BAFD07F180
:105D3000200001F061FD07F1100001F05DFDBA687F
:105D40002B4601323846314601F012FE314604F14D
:105D5000A00003F042FD214607F1100001F0B0FD64
:105D600007F11000304901F0CDFD014607F1200098
:105D700001F0A6FD07F12001384601F092FD07F180
:105D8000200001F039FD07F1100001F035FDBA687F
:105D90002B4601323846314601F0EAFD314604F126
:105DA000A00003F01AFD04F5A27107F1200001F034
:105DB00087FD07F120001D4901F0A4FD014607F110
:105DC000100001F07DFD07F1200001F015FDBA691A
:105DD00007F1100002F1080323F00703ADEB030DF8
:105DE00002AE2B463146013201F0C2FD094932466E
:105DF00004F1A00003F0B4FC07F1100001F0FCFC7A
:105E0000384601F0F9FC3437BD46F0BD7C04002073
:105E10003D8A01082F8A01081C8A0108F4890108BB
:105E2000FE890108088A0108128A0108508A0108BF
:105E3000F0B5904C8BB004F1200002AF03F0BEFD32
:105E400004F1400003F0BAFD04F1600003F0B6FD78
:105E500004F1800003F0B2FD206A88B30A2204F541
:105E6000AA7101F0BDFC04F5AE7107F1100001F05C
:105E700027FD814907F1100001F044FD0146384635
:105E800001F01EFD07F1100001F0B6FCBA686E4685
:105E900002F1080323F00703ADEB030D02AD00236D
:105EA00038462946013201F063FD294604F5AA72FD
:105EB00004F1A00003F054FC384601F09DFCB54607
:105EC000206C70B30A226D4901F08AFC6C4907F11D
:105ED000100001F0F5FC6B4907F1100001F012FD14
:105EE0000146384601F0ECFC07F1100001F084FC9B
:105EF000BA686E4602F1080323F00703ADEB030D09
:105F000002AD002338462946013201F031FD5E48DA
:105F1000294600F1B40203F023FC384601F06CFC82
:105F2000B546206E70B30A22544901F059FC544919
:105F300007F1100001F0C4FC544907F1100001F012
:105F4000E1FC0146384601F0BBFC07F1100001F00E
:105F500053FCBA686E4602F1080323F00703ADEB69
:105F6000030D02AD002338462946013201F000FD41
:105F70004548294600F1B40203F0F2FB384601F02F
:105F80003BFCB546D4F8800070B30A223B4901F0CF
:105F900027FC3B4907F1100001F092FC3C4907F156
:105FA000100001F0AFFC0146384601F089FC07F112
:105FB000100001F021FCBA686D4602F1080323F0DD
:105FC0000703ADEB030D02AC002338462146013236
:105FD00001F0CEFC2C48214600F1B40203F0C0FBD6
:105FE000384601F009FCAD46274803F0B2FA0446F2
:105FF00018B1254803F006FC38E0264B00900193C9
:1060000021482549254A234603F06CFB50B3244917
:1060100007F1100001F054FC224907F1100001F0D3
:1060200071FC0146384601F04BFC07F1100001F00D
:10603000E3FBBA686E4602F1080323F00703ADEBF9
:10604000030D02AD234638462946013201F090FC8B
:1060500012492A460C4803F083FB384601F0CCFB7A
:10606000B54603E043F6982001F038F82437BD46E2
:10607000F0BD00BF7C040020578A0108D005002035
:10608000D8050020608A01081C050020698A0108E3
:10609000728A01083D8A01081C8A01082F8A0108BA
:1060A000C00500207B8A01082DE9F7433B4C002501
:1060B0003B4E04F5B6772B46009529462A463846CE
:1060C00001F068FA3246384636490DF0FDFC04F519
:1060D000A27804F5BA70022100F012FC324F40465B
:1060E000324901F0CBFB4046DFF8D48032463946D6
:1060F0000DF0EAFC4146204601F0C0FB04F5AE7904
:106100003246394620460DF0DFFC4146484601F054
:10611000B5FB3946324648460DF0D6FC2A4604F116
:1061200020000321012303F02BFC2A4604F1400048
:106130000221012303F024FC2A4604F1600004211B
:10614000012303F01DFC01212A460B4604F1100730
:1061500004F1800003F014FC02232A46384604218F
:1061600003F07AFC04F5BC753246114938460DF04F
:10617000ABFC284601F054FD324628460D490DF08F
:10618000A3FC009504F1A0000B4940F25B720B4B9D
:1061900003F03EF903B0BDE8F08300BF7C040020AB
:1061A000F4070020195A0008F9770008848A0108CA
:1061B000819A0008255A000800000020595A00085A
:1061C000998A0108013101EB420291420BD0030F81
:1061D000092B94BF3033373301F8013C0023000111
:1061E00001F8023BF1E770471F4B10B51A88032AEC
:1061F00004D804200146188007F026FB4FF0006009
:106200004FF4A04107F016FB0124184B1848214613
:106210001C7007F02BFD06F061FB06F047F82146E5
:10622000402007F0DBFD6FF07F4006F0B1F9E7207A
:1062300006F02AFA0F4B1C7006F082F87D2007F05A
:10624000F1FD18B10C4B1C7007F000FE40F6B830A1
:1062500006F0D0F806F034FE07F0AEF8074A012346
:106260001370074A137010BD401800201C1800203E
:1062700000043000CC160020102100205017002010
:106280004617002038B52F4C2388042B04D805214D
:106290000420218007F0D8FA2B4D2B7813B12B481E
:1062A00002F0DCF92B7853B12388052B05D8254B58
:1062B00006210420198007F0C7FA02F0A5FA2B780E
:1062C00063B1234B1B784BB9224B1B7833B1224B64
:1062D0001B781BB9214B1B78002BE3D0204B1B787C
:1062E000002BDFD11F4B1B78002BDBD11B4B1B7806
:1062F000012B0FD01C4B6BB12388062B05D8114BFB
:1063000007210420198007F09FFAFFF743FC134B85
:1063100001221A70154B002BC4D02388072B05D8F7
:10632000084B08210420198007F08EFAFFF780FD42
:106330002388082BB6D8034B09210420198007F0C5
:1063400083FAAFE740180020501700208D6B00083B
:106350000517002046170020CA1600208C060020D2
:10636000CB16002010210020955B0008315E00084C
:10637000F8B5524B1A6812B11A68013A1A60504BBC
:10638000504D1B783BB1504B1B78002B28D04F4B06
:10639000002B47D124E04E4C2368264613B12368D6
:1063A000013B0FE04B4B1B78D3B94B4B1B78BBB970
:1063B0004A4B1B78A3B94A4F3B782BB1E72006F034
:1063C000D7F9142323600BE02B78002B2DD1E72085
:1063D00006F088F9434B1B78002B34D0322333600E
:1063E0002B7833B1404C23781BB92EE05A68013228
:1063F0005A603E4B1A68B2F57A7F0FD300221A60BA
:1064000007F08CFC3A4B4FF6FF711A888A4254D041
:1064100019800420BDE8F84007F016BA1A68013266
:106420001A60F8BD00F012FCDAE7324B1B78002B43
:10643000CDD04FF6FF7006F0ABF8E72006F024F958
:1064400001233B70CCE76423C9E7234B1B788BB156
:10645000294B47F22F5259689142C7D9BFF34F8F4A
:10646000264A274BD16801F4E0610B43D360BFF3A8
:106470004F8FFEE7174B1B7803F0FF0533B9284613
:1064800006F08CFA40F6B73398420DD8002006F09B
:1064900085FA41F657339842ABD9002006F086FAC8
:1064A000184B01221A70A4E7284606F07FFA2378D9
:1064B000002B9ED101F0C4FE9BE7F8BD18210020FF
:1064C000FC17002050170020280A00204D6C0008FF
:1064D00014210020FD160020CB160020CD16002030
:1064E000CC160020C9160020051700201C21002012
:1064F00040180020CA1600208C06002000ED00E0A5
:106500000400FA05FC16002008B5094B186006F0D7
:106510007DFC002006F0C6FC064805F0EBFE06F008
:106520008DFC06F0ABFCBDE8084008F075BB00BF71
:10653000BC020020A0860100074B1B68052B08D178
:10654000064B1A7A012A04D1987A1B7BC01AC0B272
:1065500070470020704700BF441800208C060020C0
:106560000D4B10B51B68052B13D10C4C237A012B56
:106570000FD16289A389D31A012B04D100230320F0
:10658000237208F0A0FCA3895A1CA2811C44A07BA2
:1065900010BD4FF0FF3010BD441800208C060020C5
:1065A00008B50C4B1B68052B12D10B4B1A6D9918B3
:1065B0000132B2F5807F08BF002281F854001A65CD
:1065C00006F008FB20B16420BDE8084005F092BE4B
:1065D00008BD00BF441800208C060020F8B5234BEE
:1065E00093F85421012A3FD0D3F85821196DB2F500
:1065F000807F04BF0022C3F85821D3F858411B4ABA
:106600008C4203D1002382F85431F8BD8CBFC4F50D
:106610008071C4EB0101C2F85C11D3F85C61134DC9
:10662000402EA2B207D94034403EC5F85841C5F8C3
:106630005C61402706E034440021B7B2C5F85841F8
:10664000C5F85C110A4801241044C0213A4683F879
:10665000544108F0B3FB2046394608F0B7FC204609
:10666000BDE8F84008F01CBCF8BD00BF8C06002057
:10667000E0060020094B10B593E8140008331B68AE
:10668000D0180AD006490822FFF79CFD204605498C
:106690000422BDE81040FFF795BD10BDE8F7FF1FCD
:1066A000690200207902002013B5084C00210091F6
:1066B0000A460B46204600F06DFF0549054A204674
:1066C00002B0BDE810400DF0FFB900BFEC0700209C
:1066D000195A0008F407002038B504460D46AC42AC
:1066E00003D254F8043B9847F9E738BD08B507488A
:1066F0000749FFF7F1FF07480749FFF7EDFFBDE83E
:10670000084006480649FFF7E7BF00BFF48F0108BD
:10671000F48F0108F48F01085C9001085C90010877
:106720005C9001080DF028BA08B5072006F068FF54
:10673000FEE70000074A08B5136818441060064ACF
:10674000904204D9082006F05BFF0DF0EBF91846E3
:1067500008BD00BF04000020004800204FF0FF30BB
:1067600070470120704708B50C2006F049FFFEE78E
:10677000014B1868704700BFF8070020064B02461F
:10678000582000FB013101F1080303CB1060516078
:1067900018689060704700BFF8070020014BD3F8DD
:1067A00064017047F8070020064B0246142000FBE6
:1067B000013101F5B67303CB106051601868906029
:1067C000704700BFF807002038B50546064C28B1D1
:1067D00005F080FF012384F8303238BD05F028FF32
:1067E00084F8305238BD00BFF80700200E4B2DE969
:1067F000F041D3F8647180460024BC4211DA1425BC
:106800006543094E414606F5B67028440C220DF04A
:1068100077FB20B93544D5F86801BDE8F081013433
:10682000EBE70020BDE8F081F8070020044B0122CF
:106830001A70044B00224FF4C0201A6006F0B6BB59
:10684000CB16002090060020034A00231370034A51
:10685000136006F009BC00BFCB1600209006002094
:10686000024B00221A6006F0C9BB00BF9006002050
:106870002DE9F04788B0804668460D4600F0FEFFDF
:106880001E4B0024D3F800A054452DDA55B35826EA
:1068900066431A4F414607F1080030440C2207F1C5
:1068A00004090DF02DFBE8B928460DF021FB06F197
:1068B0001003402834BF02464022294609EB03005A
:1068C0000DF07FF93E44012386F85830694604A84C
:1068D000746800F0F5FF04A8A047044604A800F07F
:1068E0008BFF03E00134CFE74FF0FF34684600F040
:1068F00083FF204608B0BDE8F08700BFF8070020FE
:1069000001290AD002D3022910D070470C4B002273
:1069100083F8312201220B4B10E0094B002283F84F
:106920003112084B1A70084B19707047044B002243
:1069300083F83112034B1A70034B01221A7070470F
:10694000F80700204617002005170020014B93F898
:1069500031027047F807002073B5002B0CBF652388
:10696000452306460D461446009331462A462346E3
:10697000024808F0E3FE02B070BD00BF2C0A002000
:1069800010B5064C206803F0C1FF2368013303D023
:10699000431E5842584110BD012010BD0800002080
:1069A00038B50B4B05461B780C466BB9094B1B7869
:1069B00053B9FFF7E5FF034630B9074A2946106887
:1069C000224604F059FF38BD4FF0FF3038BD00BFFC
:1069D0000417002005170020080000202DE9F041D1
:1069E000264B86B01B7880460F46002B41D1244BA6
:1069F0001B78002B3DD1FFF7C3FF0446002838D198
:106A0000204D8DF80C008DF80D008DF80E008DF8DE
:106A10000F00286806AA460902EB8606012100F04D
:106A20001F02914056F80C2C01300A4346F80C2CFA
:106A300041F28832059204AA009203A92246234615
:106A4000049404F0FBFD002815DD2B6806AA590903
:106A500002EB810151F80C5C03F01F02154115F0A7
:106A6000010008D0184641463A46234604F086FE07
:106A700001E04FF0FF3006B0BDE8F08104170020C0
:106A8000051700200800002030B51F48ADF57B7DBC
:106A900008F005FB002834D11C4B17A805931C4BAC
:106AA00061AD06931B4B049007931B4B0EAC0893F0
:106AB0001A4B039509931A4B0A931A4B0B931A4BD3
:106AC0000C931A4B0D931A4B0E931A4B0F931A4BB0
:106AD00010931A4B11931A4B12931A4B13931A4B90
:106AE00014931A4B15931A4B169306F003FB284682
:106AF00006F006FB00940448164903AA05AB08F00B
:106B0000D5FA0DF57B7D30BD2C0A0020A169000867
:106B1000DD6900082D6800084968000831D10008C7
:106B200061680008C9670008B9700008A17D000805
:106B3000716700087D670008716800089D6700089C
:106B4000A9670008516E0008ED6700080DD1000824
:106B500021D10008E8F7FF1F014809F025BA00BF5E
:106B60002C0A002010B5064C23783BB1FFF7F4FF48
:106B700020B9044B1870044B1870207010BD00BF72
:106B8000C9160020CB160020CA16002010B502201E
:106B90008CB00146112204F093FC041E24DB13493F
:106BA00007A808F0D3FB02230122ADF80C308DF8C2
:106BB00012201623BB228DF80E308DF813203323BC
:106BC00003AA8DF80F300092E02310228DF81030C8
:106BD00001920023204607A913228DF8113004F0FA
:106BE00055FE204604F09CFC0CB010BDE8F7FF1FDA
:106BF00030B5134C87B0FFF747FF204608F052FA34
:106C0000204608F076FE0546FFF7C0FF204608F054
:106C1000DFFD03A804F032F89DF80D209DF80C303C
:106C2000009204A80821074A0DF028F9064804A993
:106C30003C220123FFF790FE284607B030BD00BF7D
:106C40002C0A0020A78A0108AD8A010838B5114C2A
:106C5000D4F8585B2DB1D4F8583B013BC4F8583BED
:106C600038BDD4F85C3B0C4A52F8230005F0B8FC60
:106C7000E72005F009FD6423084AC4F8583BD4F81E
:106C80005C3B526801339342C4F85C3BA8BFC4F834
:106C90005C5B38BDF8070020605F01080800002039
:106CA0007FB502200121062204F00AFC041E24DB29
:106CB0000223ADF8003000238DF8023035238DF823
:106CC00003304FF4FA5008238DF804308DF8053066
:106CD0008DF806308DF8073001F0B8FC69461022B7
:106CE0000546204604F07CFC0646284601F0AEFC32
:106CF000204604F015FC304601E04FF0FF3004B0B0
:106D000070BD000010B5064C2068002805DB04F0BB
:106D100007FC4FF0FF33236010BD002010BD00BF03
:106D200008000020F0B5A7B0FFF7ECFF022001211A
:106D3000062204F0C5FB304F002838604DDB2F4C95
:106D40000223A4F8603B162384F8623B05A8332392
:106D500084F8633B06F09AF9002300939DF8143001
:106D60003BB1012B14D0264B01AD03F1100E2A4686
:106D700002E0069B009310E0186859682E4603C68F
:106D8000083373453546F7D10FCA06AD85E80F00C5
:106D90000A25009B0BB9013D22D1009B0BB9194B71
:106DA0000093009B4FF4FA501A0E84F8642B1A0CCF
:106DB00084F8652B1A0A84F8673B84F8662B01F087
:106DC00045FC114904461022386804F009FC0546C8
:106DD000204601F03BFC28460CE04FF0FF3009E074
:106DE00006A87E210DF0B4F86A4681B206A804F028
:106DF000BDFBCEE727B0F0BD08000020F80700205B
:106E0000C88A010804E5D036581300200F4B2DE93D
:106E1000F041D3F8647180460024BC4211DA142595
:106E200065430A4E414606F5B67028440C220DF023
:106E300067F820B9354495F87801BDE8F081013450
:106E4000EBE74FF0FF30BDE8F08100BFF80700200E
:106E500008B5FFF7DBFF013808289DBF024BC018BB
:106E6000007F022008BD00BF605F010804F0B8BBCE
:106E700037B50B4C002104F537650B4600910A46E7
:106E8000284600F087FB28460649074A0CF01CFEFE
:106E900004F50D7003B0BDE8304008F0EBB800BF5A
:106EA000F8070020195A0008F407002014282DE9DB
:106EB000F34104460E4675D8FF2973D000F024FC38
:106EC00018B1A4F10D03022B6CD900F0F7FA08B148
:106ED000012C67D901F0EAF818B1A4F11203012BD3
:106EE00060D918236343314DEA18EF58304BB2F89C
:106EF00004809F4201D1042003E02E4B9F4203D126
:106F00000820012106F076FFADF80480062E45D852
:106F1000DFE806F0040F171F27313C0010238DF81F
:106F2000073003238DF80630182303FB0454002395
:106F300033E004238DF80730182303FB04540123A6
:106F40002BE048238DF80730182303FB0454022359
:106F500023E028238DF80730182303FB0454032370
:106F60001BE0182303228DF8073003FB04548DF82F
:106F70000620042311E01C238DF8073003238DF82D
:106F80000630182303FB0454052306E000238DF884
:106F90000730182303FB04540623A373384601A9C2
:106FA00006F006FE02B0BDE8F08100BF1000002030
:106FB00000080140000C0140142870B504460E463C
:106FC00035D81B4D182303FB00539B7B5A1E022A06
:106FD0002DD9062B2BD0FF2B29D000F095FB20B10B
:106FE000A4F10D03022B00D870BD00F067FA10B1B8
:106FF000012C00D870BD01F059F820B1A4F11203A2
:10700000012B00D870BD182303FB04539B7B042B7A
:1070100003D120460021FFF749FF18235C432A19BA
:107020002B5992880EB95A6170BD1A6170BD70BD3E
:1070300010000020142838B5044615D81D4D18231B
:1070400003FB00539B7BFF2B0ED0043B012B0BD982
:1070500000F05AFB18B1A4F10D03022B04D900F083
:107060002DFA18B1012C01D8002038BD01F01EF80E
:1070700018B1A4F11203012BF6D9182303FB045312
:107080009B7B062B07D10B4B93F8F811FF29EBD014
:107090002046FFF70BFF182254432544054BAA7BDB
:1070A000A988185912B906F0D7FD38BD06F0CEFDF3
:1070B00038BD00BF1000002006F074B8044B5868BB
:1070C000044B1A68044BB2FBF3F3B0FBF3F07047C8
:1070D000001000E0B003002040420F0030B54FF434
:1070E0007A7385B01C4C00932368054603442360E3
:1070F00006F058F8019006F011FE06F053F80290E1
:10710000029A019BD31A0393039B002B03DA019B82
:10711000029A13440393039BAB421AD20F4B1B7882
:10712000002BE8D00E4B1B78002BE4D1039A009B78
:107130009A4203D22368B3F57A7FDCD3039B03F52D
:107140007A73009301F060FB064B1B78002BF9D19A
:10715000D1E705B030BD00BF001700205017002058
:1071600005170020CB16002013B5084C0021009114
:107170000A460B46204600F00DFA0549054A20460E
:1071800002B0BDE810400CF09FBC00BF9C13002073
:10719000195A0008F407002038B5184B05461C881A
:1071A00003F580631B88A4B29BB22BB94EF6EE6246
:1071B000A21A18BF012205E0F4B94EF6EE629B1A3E
:1071C0005A425A4192020E4B02F1006404F5804487
:1071D00013449C420ED22268013209D1204606F0A7
:1071E000CBFC042809D1A01C294606F0C5FC38BDFB
:1071F0000434EEE7802038BDAB2038BD00400008E5
:10720000FE43000808B5084806F098FC04280AD197
:107210000548002106F0B0FC042804D1BDE8084070
:10722000024806F08BBC08BD00400008004400087E
:10723000104B10B51C8803F580631B88A4B29BB269
:107240001CB10BB1AB2010BD01240B4BA402234495
:107250000A4A224493420AD91A8892B2824204D13D
:1072600033F8023C00200B8010BD043BF0E7012006
:1072700010BD00BF00400008FE43000802400008A7
:10728000F8B5444E06F01AFC434D34884EF6EE61D4
:10729000A4B22B888C429BB24FF6FF7210D094425E
:1072A00002D0002C73D142E00BB930466CE08B4227
:1072B0006DD1304606F042FC04286AD1284632E0FF
:1072C0004BBB1C461646354B354A1B8832F81450CA
:1072D0009BB2AB4208BFA6B233B29C4203D1013489
:1072E000642CF0D10FE02E4F284607F1C801FFF7BC
:1072F0009FFF0128F3D02846B7F8C810FFF74CFFCE
:107300000428ECD0F8BD2348002106F035FC042801
:107310003FD1214838E0934239D1284606F00EFC8F
:10732000042836D13046002106F026FCF8BD73B3A0
:10733000934201D1284627E016461A4B184A1B886B
:1073400032F814509BB2AB4208BFA6B233B29C4293
:1073500003D10134642CF0D10FE0114F284607F11E
:10736000C801FFF765FF0128F3D02846B7F8C81019
:10737000FFF712FF0428ECD0F8BD0748002106F003
:10738000FBFB042805D1034806F0D8FBF8BDFFF746
:1073900039FFF8BD0040000800440008064000081E
:1073A000A41300200644000810B50446FFF768FF48
:1073B0000023044A22F813300133642BF9D120460C
:1073C00010BD00BFA41300200148FFF7EDBF00BFB0
:1073D0006E140020024B18785B78C01A704700BF0B
:1073E00070140020064B5A781978914204D99918E4
:1073F000013288785A7070474FF0FF30704700BFF5
:1074000070140020044B5A781978914286BF9B185B
:1074100098784FF0FF3070477014002070470000DC
:10742000014B0360704700BFD05F010810B5034BEC
:1074300004460360FFF776F9204610BDD05F0108CF
:10744000F8B5094B054693F82230164653B10C4661
:107450008F18BC4206D02B6828469B6814F8011B85
:107460009847F6E73046F8BD7014002010B50C4B75
:10747000012293F822408CB193F823401F2C02D9AB
:107480004260002010BD93F824001C1884F82510D9
:10749000411CC9B283F8241083F82310104610BD94
:1074A00070140020002242604FF47A728260014A18
:1074B00002607047905F010870477047014B93F876
:1074C000590070477014002073B50E4C002104F170
:1074D00064050D4E0B4600910A46284600F05AF806
:1074E0006C343246094928460CF0EEFA2046FFF784
:1074F000D9FF07492046324602B0BDE870400CF083
:10750000E3BA00BF70140020F4070020195A0008E5
:107510002174000808B5034B53F8203003B1984795
:1075200008BD00BFEC14002013B5084C00210091E9
:107530000A460B46204600F02DF80549054A20462C
:1075400002B0BDE810400CF0BFBA00BF2C150020FF
:10755000195A0008F40700202DE9F04100240746DD
:107560000E4625463B1919790A22304600F09AF852
:107570002E218046304600F066F801344044032C4A
:107580000544EFD13046F9790A2200F08BF82844FF
:10759000BDE8F08130B58371034D9DF80C30056076
:1075A00001714271C37130BDB85F0108024A0260C7
:1075B0000A684260704700BFB85F01080548064B83
:1075C00006490360064A0023037143718371C37146
:1075D0000CF07ABA34150020B85F0108195A000877
:1075E000F4070020014B0360704700BFD05F010823
:1075F000F8B506460C468F180025BC4207D0336804
:1076000030469B6814F8011B98470544F5E7284667
:10761000F8BD000010B5034B04460360FFF782F885
:10762000204610BDD05F010838B505460C46084617
:1076300041B10CF05DFC2B680246DB682846214610
:10764000984738BD38BD08B503689B68984708BDA2
:1076500030B500238BB08DF82430012A98BF0A2260
:107660000DF12304B1FBF2F303FB1211CDB2092D8E
:1076700094BF30353735EDB2214604F801590BB1CE
:107680001946EFE7FFF7D0FF0BB030BD10B522B9B8
:107690000268C9B29268904710BDD2B2BDE81040EE
:1076A000FFF7D6BFFFF7F2BF13B5084C00210091DA
:1076B0000A460B462046FFF76DFF0549054A20465E
:1076C00002B0BDE810400CF0FFB900BF3C1500202F
:1076D000195A0008F407002013B5084C0021009146
:1076E0000A460B462046FFF755FF0549054A204646
:1076F00002B0BDE810400CF0E7B900BF441500200F
:10770000195A0008F4070020014B587D704700BF4C
:107710004C1500207047000013B5084C0021009163
:107720000A460B462046FFF735FF0549054A204625
:1077300002B0BDE810400CF0C7B900BF64150020CE
:10774000195A0008F407002013B5084C00210091D5
:107750000A460B462046FFF71DFF0549054A20460D
:1077600002B0BDE810400CF0AFB900BF70150020AA
:10777000195A0008F407002010B504460CF0B8FBB5
:10778000013823462044834206D21A78017803F850
:10779000011B00F80129F6E710BD38B5931E222B16
:1077A0000C461BD8A8B10B46B0FBF2F102FB11004E
:1077B000C5B2092803F8015BD4BF3035573503F84B
:1077C000015C09B10846EFE719702046FFF7D4FFC6
:1077D00002E030230B704870204638BD002038BDD1
:1077E000031E10B50C4603DA2D2001F8010B584298
:1077F000FFF7D3FF204610BD10B5044600680CF01B
:10780000BBF9204610BD10B50446006808B10CF065
:10781000B3F900232360A360636010BD38B504464C
:107820000D46006801310CF0CBFA10B184E821005C
:10783000012038BD036810B5044613B143688B427C
:1078400007D22046FFF7EAFF20B1A3680BB92268F0
:107850001370012010BD70B50E4611460446154642
:10786000FFF7E8FF18B92046FFF7CDFF04E0A56059
:10787000206831460CF034FB204670BD38B500233B
:10788000044603604360836003730D4639B10846C4
:107890000CF02EFB294602462046FFF7DCFF20466F
:1078A00038BD884210B50B46044607D0096819B1A7
:1078B0009A68FFF7D0FF01E0FFF7A5FF204610BD53
:1078C00010B5002304460360436083600373FFF731
:1078D000E8FF204610BD70B5044685680E4609B91C
:1078E000002070BD62B115442946FFF7A3FF0028B0
:1078F000F6D02068A368314618440CF0F1FAA56070
:10790000012070BD38B504460D4641B108460CF063
:10791000EFFA294602462046FFF7DDFF10B9204660
:10792000FFF771FF204638BD03680A680BB15AB9EA
:1079300005E022B1896811B11078404270473BB12F
:10794000806830B11878704718461146FDF7E0BBE3
:107950001846704708B582688B689A4206D1FFF7CF
:10796000E3FFD0F1010038BF002008BD002008BDB2
:1079700038B50C469AB191B181688B4202D300238D
:10798000237038BDC91A551E8D4228BF0D460168A7
:107990002A46194420460CF0C9FA0023635538BD25
:1079A00013B5026802AB03F8011DD4681946012221
:1079B000A04702B010BD10B5B0F89620B0F89430D2
:1079C00004469A4207D0B4F894305A1CA4F8942084
:1079D0001C44207D10BD03681B6998470028F2D124
:1079E0004FF0FF3010BD10B5B0F89620B0F89430CD
:1079F00004469A4204D0B4F894301C44207D10BD53
:107A000003681B6998470028F5D14FF0FF3010BD7F
:107A10000023A0F89430A0F89630704730B5B0F845
:107A2000963087B0044633B1B0F894209A4202D120
:107A30000368DB69984700F0BBFB18B3206908288E
:107A400020D0B4F896307F2B1CD8430906AA02EB4D
:107A50008303012100F01F0291400025039553F894
:107A60000C2C01300A4343F80C2C41F28833059367
:107A700004AB009303A92A462B46049503F0DEFDD0
:107A8000A84206DCB4F89600B4F89430C01A07B0E7
:107A900030BD206906AB420903EB820252F80C2C80
:107AA00000F01F0342FA03F3DB07EBD5B4F896208E
:107AB0002B46A1181431C2F1800203F05FFE0028AA
:107AC000E0DDB4F896300BB9A4F894300344A4F880
:107AD0009630D7E7F8B51746B0F89430B0F896204E
:107AE00004469A420E4606D103681B69984710B9AE
:107AF0004FF0FF3512E0B4F89430B4F89650E11826
:107B0000ED1ABD4228BF3D46304614312A460CF0DE
:107B100058F8B4F894302B44A4F894302846F8BDB3
:107B200010B504460069082801D003F0F9FC0823C9
:107B3000236110BD7FB504460D46164600F038FBA4
:107B4000002836D002200121062203F0B9FC0028CB
:107B500020612BDB23682046DB6998470223ADF8C0
:107B60000030330A8DF802302B794FF4FA508DF83B
:107B700004306B798DF803608DF80530AB798DF8A2
:107B80000630EB798DF8073000F060FD6946054658
:107B900010222069FFF76AF90646284600F056FDD4
:107BA000002E05DA23682046DB6A9847002000E0B3
:107BB000012004B070BD00002DE9F04188B00546F9
:107BC0000E46904600F0F4FA002718B308AC304691
:107BD00044F8147D0CF08CF9224681B2304603F053
:107BE000C5FCB84215DD039B04A8DAB20092190E59
:107BF000C3F30742C3F30723FFF7CCFC2B682846E7
:107C00001C6A064B06A90693059B42460793A047AC
:107C100000E0384608B0BDE8F08100BFB85F010859
:107C20004FF47A71816005490022016008214260A9
:107C30000161A0F89420A0F896207047E85F010841
:107C4000036910B5082B044601D1002010BD00F0D7
:107C5000AFFA0028F9D0206902F058FED0F10100F7
:107C600038BF002010BD70B504460E461546FFF71C
:107C7000E7FF30B1206931462A46002303F0FCFDBE
:107C800070BD4FF0FF3070BD70B50446FFF7D8FFF0
:107C9000012819D0B4F89620B4F894309A4212D141
:107CA0002069082803D002F031FE012801D000200D
:107CB00070BD236820461B69984720B92368204679
:107CC000DB6A9847F3E7012070BD08B5FFF7B8FFFE
:107CD000003018BF012008BD13B5084C00210091E9
:107CE0000A460B462046FFF755FC0549054A204643
:107CF00002B0BDE810400BF0E7BE00BF78150020D1
:107D0000195A0008F407002013B5084C002100910F
:107D10000A460B462046FFF73DFC0549054A20462A
:107D200002B0BDE810400BF0CFBE00BF80150020B0
:107D3000195A0008F407002038B5184C94F92C3073
:107D40005BB394F82D3043B306F0A8F894F82C20D8
:107D500094F82D5051B2002995FBF1F106DD01296F
:107D60000BDC013A84F82C20002307E0013104DB0E
:107D7000013284F82C20022300E0012394F82D2006
:107D8000013A84F82D20C41806F0BAF8204606F00F
:107D900097F8BDE8384006F0B3B838BD8815002024
:107DA00010B5044606F07AF8001B00F17F02FE2AA7
:107DB00008D906F0A5F8204606F082F8BDE8104084
:107DC00006F09EB8054A80EAE073A3EBE0735B001F
:107DD00082F82C0082F82D3010BD00BF88150020DD
:107DE00013B5084C002100910A460B462046FFF7C8
:107DF000D1FB0549054A204602B0BDE810400BF012
:107E000063BE00BFB8150020195A0008F40700200F
:107E100013B5084C002100910A460B462046FFF797
:107E2000B9FB0549054A204602B0BDE810400BF0F9
:107E30004BBE00BFC4150020195A0008F4070020EB
:107E400013B5084C002100910A460B462046FFF767
:107E5000A1FB0549054A204602B0BDE810400BF0E1
:107E600033BE00BFCC150020195A0008F4070020CB
:107E7000014B0360704700BFD05F0108426D836D06
:107E8000D01A00F03F007047426D836D9A421DBFCB
:107E9000836DC018007D4FF0FF307047426D836DD9
:107EA0009A4209D0836D826D03441B7D013202F03A
:107EB0003F028265184670474FF0FF307047000060
:107EC00010B5034B04460360FEF72CFC204610BDA2
:107ED000D05F010810B50446D4F89C20D4F8A03037
:107EE0009A42F9D1237C13B90023237410BDD4F82E
:107EF000A4304021186806F050FA0028F4D1F1E7C8
:107F0000D0F8A43070B504460E46186840F22771C8
:107F100006F049FA28B9D4F89C20D4F8A0309A4247
:107F200015D1D4F89C50013505F03F05D4F8A030A8
:107F30009D42D4F8A43013D0EFF31082D20742D57B
:107F4000D4F89C10D4F8A020914209D13BE0D4F899
:107F5000A43040F227711868012206F0FEF9E0E72C
:107F6000186840F2277106F01EFA0028DED0D4F817
:107F7000A4308021186806F010FA0028D6D0D4F872
:107F8000A43040F227711868002206F0E6F9D4F810
:107F9000A4301868D4F8A0305A1C2344C4F8A02098
:107FA00093F85C1006F0F1F9D4F8A03040F2277194
:107FB00003F03F03C4F8A030D4F8A43001221868BD
:107FC00006F0CBF9B2E7D4F89C2040F227712244A6
:107FD00082F85C60C4F89C500125186825742A4614
:107FE00006F0BBF9284670BD10B540F22551044695
:107FF000006806F0D8F970B1206806F0CAF9E369A4
:10800000C0B21A6C596C013202F03F028A4202D0AF
:10801000196C58541A64206840F2277106F0C3F9AD
:10802000B8B1A3692068196C5A6C914206D1BDE8B9
:10803000104040F22771002206F08FB95A6C511C93
:108040005964995C06F0A1F9A3695A6C02F03F02E9
:108050005A6410BDF8B54FF47A7383600C4B044634
:10806000002503604560C0F8A41004F15C074826B1
:1080700014308F613246C86129460BF0C6FD384680
:10808000294632460BF0C1FD25742046F8BD00BFDD
:10809000286001080148FFF7A7BF00BF0C020020BD
:1080A0000148FFF7A1BF00BF2C020020014B187C44
:1080B000704700BFD415002073B50E4C002104F1A9
:1080C00014050D4E0B4600910A462846FFF762FA4A
:1080D0001C343246284609490BF0F6FC2046084974
:1080E000FFF7B8FF07492046324602B0BDE87040AE
:1080F0000BF0EABCD4150020F4070020195A000840
:108100000C020020717E000870474FF0FF3070476E
:10811000014B0360704700BFD05F010810B5034BEF
:1081200004460360FEF7FEFA204610BDD05F01084A
:10813000FEF716BA08B5FEF7FFF908BD08B5084600
:10814000FEF72EFA012008BD002242604FF47A7239
:108150008260014A02607047506001080846FEF7DD
:10816000D3B9000037B50D4C00210D4D0B460091E1
:108170000A462046FFF70EFA2A460A4920460834E6
:108180000BF0A2FC2046FFF7DFFF074920462A46F6
:1081900003B0BDE830400BF097BC00BF981600203C
:1081A000F4070020195A00081181000870470000E8
:1081B000054B1B7803F0FF0023B1044B1878003007
:1081C00018BF0120704700BF06170020C816002006
:1081D00008B5FFF7EDFF68B1074B01221A700020C8
:1081E000064B01460246187003F07EFCBDE80840CD
:1081F00003F060BC08BD00BFC31600204617002076
:1082000008B50B4B1B7893B103F0D8FB094A012347
:108210001370094A00211170084A6FF07F401370F3
:1082200004F0B6F9BDE80840E72004F02DBA08BD17
:10823000061700200517002046170020CC16002046
:10824000014B01221A707047FD160020084B1B7865
:1082500003F0FF0053B1074B1B7833B9064B187876
:10826000D0F1010038BF002070470020704700BFE8
:10827000FD1600204D0200204C0200202DE9F043A5
:108280001446324A89B012781D4681468846109BB2
:10829000002A58D022782AB1032B4AD8DFE803F00D
:1082A000020E3939002001230093019002900390BF
:1082B0000490059049464246034636E0244B1B781D
:1082C00003F0FF06D3B920460BF012FE27464508FF
:1082D0008DF81E60AE4207F102070FD017F8023C7E
:1082E00007A88DF81C3017F8013C002110228DF8EA
:1082F0001D300BF043FFA0550136EBE700230120B2
:108300008DE8210002930393049405934946424665
:108310000BE0012018211E2202238DE80F00049497
:108320000595032049464246002303F001FC094B12
:108330001870084A084B12780E2001321A70012179
:10834000002202F069FC09B0BDE8F08306170020A6
:108350004D02002051170020E8160020024B18782B
:10836000003018BF01207047E816002008B5FF2034
:1083700003F0C4FC28B900F04FF900F03DF90120EA
:1083800008BD002008BD000038B5FFF711FF044606
:1083900000283DD11F4B187003F0DAFA1E4B012262
:1083A0001A701E4B48F204201C7003F0C3FC1C4BD7
:1083B0001A881D46012A14D00E2010212246194B7E
:1083C00002F0FCFB10280CD1174B1B7883B9FFF788
:1083D000C5FF68B9154B01221A70BDE8384000F09E
:1083E000F3B8FFF7C3FF00232B8004F091FDEBE708
:1083F0000F4B00244FF47F401C7004F0C9F8E720B5
:1084000004F042F920462146012203F06DFBE4E727
:1084100038BD00BFC3160020061700200517002036
:108420009E030020E8160020C1160020FD16002043
:10843000CC16002037B50B4C00210B4D0B4600919C
:108440000A462046FFF7A6F82A46204607490BF0C1
:108450003BFB074904F108002A4603B0BDE8304061
:108460000BF032BBB0160020F4070020195A0008A8
:10847000AD810008002303601846704700230360A5
:108480001846704700230360184670470A4BF7B53B
:10849000164601220C461A7005460BF029FD0746C8
:1084A00020460BF025FD0096034639462846224615
:1084B000FFF7E4FE03B0F0BD4C02002038B50346E0
:1084C00048F21004A34208464CD00DDC48F20102E9
:1084D000934225D048F2020293422ED0992B6CD1C0
:1084E000364B01229A7338BD48F28004A3420FD064
:1084F000B3F5084F49D048F2400083425DD12F4C7C
:1085000004F110000BF05DFB636A0133636238BD58
:108510002B4B01225A70294B1A7000225A7038BD19
:10852000264C0123A370E378002B46D1FEF7C4FD4F
:1085300000F5EA403030606038BD204CA3780BB1C4
:10854000E3789BB300250123FF20A5702572657297
:10855000A572E572237304F01BF8E72004F094F889
:10856000657338BD0A7D154B62B95A604FF47F4080
:1085700001221A721A7304F00BF8BDE83840E720A4
:1085800004F082B800221A7238BD002101F0A1FD6A
:108590000121044601F0E4FD0A4B1B689C420CD10A
:1085A000064B0022DA729A725A7238BDFEF784FDC9
:1085B00000F5EA4030306060C4E738BDC0160020E6
:1085C0004C020020080000201FB54FF461504FF40A
:1085D00061610A2200238DE80F00064B44F62062F9
:1085E0001A60684601A902AA03AB02F08FFA05B02F
:1085F0005DF804FBF81700201FB5002300930193DA
:108600000293039301A8694602AA03AB02F044FA5D
:1086100005B05DF804FB000070B500210A4C0E2087
:1086200002F046FB102510210E2002F041FB2A46E5
:10863000204600210BF0E9FA294623460E200022AD
:10864000BDE8704002F0E8BAE8160020024B1A6854
:1086500018601046704700BFF81700201FB5114B77
:10866000986304F019FB04F035FA0F4B0F480093A0
:108670000F4B10490193104B104A0293104B039378
:10868000104B03F04DF9642003F02CFEFEF75EF969
:1086900020B905B05DF804EBFFF776BE05B05DF8D4
:1086A00004FB00BFC0160020D5CB0008BD84000825
:1086B000E9CB00087584000855CC00087D840008CB
:1086C0007DCC000885840008F0B5194DAFB00D20B1
:1086D000432100222B4602F071FA432826D12F783D
:1086E0001449FE1C7419204602AA02F08DFE2B7854
:1086F0002B445B78102B05D904F110000D4902AA18
:1087000002F082FEE37F1BB1AB5D1F2B03D100E0C3
:10871000AB5D013400E020230748394610F8012CF6
:108720001544AA7800922246FFF7A8FD2FB0F0BDAD
:108730005C180020706001085D18002070B52D4C99
:108740002D4D00239EB0FF206B7023702B70A37003
:108750002372A3736372A372E372237303F018FF8F
:10876000E72003F091FFFFF733FD10210C2002F00A
:108770009FFA224802F054FEA81C03F029FB0120B6
:1087800003F00AFB68461E4900F008FDFFF75EFD96
:108790000646D8B194F83C3073B11A26013E06D093
:1087A000E72003F09FFF322003F09CFDF6E7FFF780
:1087B000DDFD84F83C60E9E7E72003F093FFFA2051
:1087C00003F090FD684600F045FDDFE7E72003F089
:1087D0005BFF0C4B0E200121324602F0EFF96B7863
:1087E0000BB1FFF771FFFFF7CFFD002384F83D3099
:1087F0001EB070BDC01600204C0200207060010841
:108800008D840008E81600202DE9F3419E4C05F008
:1088100085FA0023236494F844304BB994F845302A
:1088200033B96368C3B1FEF747FC6368984213D35A
:1088300094F84620944BBAB100229A705A601A728A
:108840009A6483F8442083F846205A729A72DA7246
:108850005A73FFF7D5FC07E094F846308A4D1BB9F0
:108860006B786BB3FFF790FD94F83D30864D13B1F4
:10887000FFF764FF05E06B781BB12B7A03F0FF066E
:1088800043B32278804B012A13D11A7A012A10D1DE
:108890009B78012B0DD103257C480BF029FB013D72
:1088A00082B27A49012002F0FDFF15F0FF05F3D1F5
:1088B0002570237A744D6BB395F84530FBB129E0F0
:1088C000EB78002BCED1FEF7F7FB00F5EA40303015
:1088D0006860C7E76E60FFF77BFC6D480BF008FB34
:1088E0006C4F804638460BF003FB00970190791FD0
:1088F00003204246334603F077F86E70C1E795F8DF
:108900004F307BB9642003F0EDFC05F14C0002F020
:1089100043F907E094F84F3023B15F4800213A2231
:108920000BF073F994F88620574B32B95A7A002A23
:108930004CD19B7A002B49D1A3E01A7AFAB193F873
:108940004520E2B95A7A002A53D018E02B4603F8A2
:108950002B2F0E200121032202F05EF900264FF694
:10896000FF70267303F014FEE72003F08DFEFEF780
:10897000D9F9B042444D5CDB0123AE646B72637A7B
:10898000414D002B7DD0AB7ABBB9FEF731F9002801
:1089900011D002DA4FF47F0007E0012801D13F48EF
:1089A00003E0022803D14FF0FF1003F0F1FDE720B0
:1089B00003F06AFE01E00123AB72FDF7C7FF022856
:1089C0005FD002B0BDE8F041FEF7CCB8FEF79AF9EF
:1089D0000023E372A3726372E378002B51D14FF44A
:1089E0007F4003F0D5FDE72002B0BDE8F04103F081
:1089F0004BBE5B7B002BB1D04FF47F0003F0C8FD72
:108A0000637B214D03F0FF02002B9FD0E72003F092
:108A10003BFE4FF4FA7003F065FCE72003F042FEE2
:108A20004FF4FA7003F05EFC6B7B013BDBB26B73BF
:108A3000E6E795F8443023BBAB6C0133022BAB6403
:108A400004BF012385F84430FEF72AF900280ADA2A
:108A5000A36C0133022BA36403D10B4B012283F8D7
:108A60004420022300E003236373637B0E2084F819
:108A70002B3001210A4B032202F0CEF8002363724F
:108A80007DE702B0BDE8F081C01600205102002051
:108A9000580200205D0200200C1700200060FF003B
:108AA000EB16002013B5084C002100910A460B4636
:108AB0002046FEF76FFD0549054A204602B0BDE895
:108AC00010400BF001B800BF48170020195A0008E9
:108AD000F4070020704708B5012004F091FDFEE77F
:108AE00008B5032004F08CFDFEE708B5042004F06F
:108AF00087FDFEE708B5052004F082FDFEE770471C
:108B00007047704708B504F045FBBDE80840FDF725
:108B10002FBC000008B5024B0BB1AFF3008008BDBD
:108B20000000000008B5024B0BB1FFF7B9FA08BD11
:108B3000A180000808B5024B0BB1FFF7ABFA08BDE6
:108B40009580000808B5024B0BB1FEF7B5FC08BDD7
:108B5000B974000808B5024B0BB1FEF7AEFC08BDB6
:108B6000BB74000808B5024B0BB1FEF7D3FD08BD7E
:108B70001577000808B5012004F08CFF38B10120FA
:108B800004F096FF024B13B10020FEF7C3FC08BDB2
:108B90001575000808B5022004F07CFF38B10220EA
:108BA00004F086FF024B13B10120FEF7B3FC08BDB1
:108BB0001575000808B5042004F06CFF78B1042096
:108BC00004F076FF0020064B0146188003F012FEE9
:108BD000BDE8084003481021012205F076BB08BD1E
:108BE00018180020002C014008B5082004F052FF9E
:108BF00038B1082004F05CFF024B13B10320FEF7EC
:108C000089FC08BD1575000808B5102004F042FF66
:108C100038B1102004F04CFF024B13B10420FEF7D2
:108C200079FC08BD1575000808B5202004F032FF56
:108C300038B1202004F03CFF0E4B13B10520FEF7A5
:108C400069FC402004F026FF38B1402004F030FFDA
:108C5000084B13B10620FEF75DFC802004F01AFFDC
:108C600038B1802004F024FF024B13B10720FEF737
:108C700051FC08BD1575000808B54FF4005004F00C
:108C800009FF40B14FF4005004F012FF174B13B12D
:108C90000D20FEF73FFC4FF4804004F0FBFE40B196
:108CA0004FF4804004F004FF104B13B10E20FEF788
:108CB00031FC4FF4004004F0EDFE40B14FF40040B1
:108CC00004F0F6FE094B13B10F20FEF723FC4FF41E
:108CD000006004F0DFFE38B14FF4006004F0E8FEFD
:108CE000BDE8084003F07EBA08BD00BF1575000856
:108CF00008B50F48102105F021FBC0B10C48102128
:108D000005F027FB002003F039FE28B9094B1A882B
:108D10000A3292B21A8008BD05481021002205F0DF
:108D2000D4FABDE808400020012103F063BD08BD6E
:108D3000002C01401818002008B5024B1B6803B135
:108D4000984708BD5417002008B5024B5B6803B173
:108D5000984708BD5417002008B5024B9B6803B123
:108D6000984708BD5417002008B5012005F0DEF82B
:108D700050B1012005F0EAF8044B0BB1FEF7DCFF1F
:108D8000BDE8084005F0BCB808BD00BF397D00084B
:108D900008B5022005F0CAF8B0B10C4B00224FF420
:108DA00000301A7004F084FE012004F0E1FF10B1DD
:108DB000012004F0E7FF05F0A3F8022005F0C6F853
:108DC000BDE8084005F09CB808BD00BF05170020AD
:108DD00003F07EB900F064B838B514490B78012B64
:108DE00023D1134A13680BB90B7038BD114C402BBB
:108DF000206881B205D94030403B20601360402597
:108E000004E09DB203442360002313600A482A460D
:108E10000844C02105F0D2FF0120294606F0D6F80B
:108E2000BDE83840012006F03BB838BDE00700201F
:108E3000E8070020E4070020E006002008B5094B01
:108E400001221A70084B002203201A8006F0ECF869
:108E5000064B024618804FF488710548BDE808406B
:108E600005F0C4BF94060020980600209606002056
:108E70009A060020084B1B68052B0BD1074B1A687C
:108E8000052A02F1010101D01960704700221A6021
:108E9000FDF7A4BB704700BF4418002060170020F6
:108EA00070B52B4D2B4C2B682B4E9BB22380228808
:108EB00033881340990508D54FF6FF532B60A378EC
:108EC0000133DBB2A370FFF7D5FF2288338813404C
:108ED0001A0401D505F0BCFE2288338813405B05D7
:108EE00005D54FF6FF332B601C4B5B6898472288F3
:108EF00033881A40900444BF4DF6FF722A602288DE
:108F00001340D90405D54EF6FF732B60002004F002
:108F100035FB2288338813401A050BD5104B1B787C
:108F200013B104F00BFB02E0022004F027FB4FF228
:108F3000FF732B60228833881340DB0507D54FF67B
:108F4000FF632B600720BDE8704004F017BB70BDC5
:108F5000445C0040641700205C210020C402002013
:108F6000C4030020034B9B7A13B1034B05221A6004
:108F7000704700BF3821002044180020014B042214
:108F80001A60704744180020034B1A78202A04BF47
:108F900000221A70704700BF681700207047000059
:108FA000212810B508D1114B1B681B7803F07F03F3
:108FB000212B10D0022010BD2028FBD10B4B0C4AD6
:108FC0001B681B78107003F07F03212B094B18BF1F
:108FD00000230BB9EEE7084B044A00241268204630
:108FE000936154829847204610BD00BF582100204D
:108FF000681700204990000831900008074B1B6853
:109000001B7803F07F03212B06D100F0DF0002283C
:109010000CBF00200220704702207047582100201A
:1090200021B9022834BF0020022070470220704777
:1090300020B9034B08221B681A8270470148704709
:1090400058210020BC02002020B9034B08221B68D5
:109050001A8270470148704758210020BC02002046
:1090600010B5FDF707FB054B00241B689C7204F04C
:109070004DFA05F0EFFF024B1C6010BD5821002097
:1090800044180020334B344A1B68D27910B50024B1
:109090005A729C72DC72204605F0BAFE20464FF4EC
:1090A000007105F0BDFE2046102105F0C7FE2046E8
:1090B000402105F05FFF8021204605F04BFF204650
:1090C00005F014FF254B204693F8341005F08CFF73
:1090D000204605F0F8FE0120214605F0A1FE012002
:1090E000C02105F037FF0120202105F0A7FE012057
:1090F000214605F0BCFE02204FF4C06105F090FE51
:1091000002204FF4807105F025FF0220214605F072
:10911000AEFE0220202105F091FE0320214605F03D
:109120007FFE03204FF4887105F024FF03204021C7
:1091300005F05AFF03204FF4405105F098FE03203C
:10914000214605F07BFE204605F016FD044B01226A
:109150001A6010BD58210020DD600108BC0200200B
:1091600044180020014905F003BB00BFF4020020B1
:10917000014905F0FDBA00BFFC020020054B1B6849
:10918000DB78042B04D8044901EBC30105F0F0BAE5
:1091900000207047582100200403002038B5044601
:1091A0000D46FEF7D1FF204625614FF41651FEF71C
:1091B000D5FF204638BD70B506460D46002428462A
:1091C0000AF096FE844208D2295D3046FEF7B6FFCB
:1091D000012003F087F80134F1E770BD2DE9F0417B
:1091E00004460E46904600252046FEF7A3FF0028C1
:1091F000FADD2046FEF79CFF4545C1B206D10023AB
:10920000337020461249FFF7D6FF15E00D29F6D03E
:109210000A29F4D0082901D07F2904D1002DE3D0F8
:10922000771E013D02E0771C317001352046EDB21A
:10923000FEF784FF3E46D7E72046FEF77BFF002877
:1092400003DD2046FEF774FFF6E7BDE8F08100BFBE
:10925000848C0108F0B585B00446FEF76BFF00284A
:1092600040F39B802046FEF763FFC0B2772867D1AA
:1092700004F1140600212122304604F135050AF0DC
:10928000C4FC4122002128460AF0BFFC04F1760705
:10929000002384F87630204641497B70FFF78BFF2E
:1092A000204631462022FFF799FF20463D49FFF72F
:1092B00082FF012220463946FFF790FF94F876306E
:1092C000A3F13002032AF0D8312B0BD120463649C6
:1092D000FFF771FF20463549FFF76DFF20463449FF
:1092E000FFF769FF94F87620B2F1300708D02046E6
:1092F0003049FFF760FF204629464022FFF76EFF06
:1093000020462D49FFF757FF23693A463046294644
:10931000984720462949FFF74EFF20462849FFF786
:109320004AFF20462749FFF746FF20462649FFF718
:1093300042FF20462549FFF73EFF2046244927E00B
:1093400069282AD1234B01AD93E8070085E807007F
:1093500020462149FFF72FFF0026AF5D20463B093D
:1093600003F13001392988BF03F1570107F00F07D6
:10937000FEF7E4FE07F13001392988BF07F15701F4
:1093800020460136FEF7DAFE0C2EE6D113492046C0
:1093900005B0BDE8F040FFF70EBF05B0F0BD00BF5F
:1093A000D88A0108DF8A01080C8B0108428B01086A
:1093B0006D8B0108B38B0108BE8B0108018C01087D
:1093C000218C0108548C0108878C0108C68C010887
:1093D000F78C0108E8F7FF1F0D8D0108848C010848
:1093E00013B5084C002100910A460B462046FEF7B3
:1093F000D1F80549054A204602B0BDE810400AF000
:1094000063BB00BF6C170020195A0008F407002046
:1094100030B5039DC0F8943000230560C0F8981063
:10942000A0F8A020C0F89C3030BD10B504462068DC
:1094300003681B6998470028F9D0206803685B69B6
:109440009847C0B210BD2DE9F84305468946FFF79D
:10945000ECFF012628710027B0462846FFF7E5FFFC
:1094600005EB0803187100F07F0303FB067708F192
:1094700001040306A4B2BFB24FEAC61601D5A04646
:10948000EBE7631E89F800300026B3B2BB4212D26C
:109490007F2C0AD82846FFF7C8FF04F101081FFAFD
:1094A00088F82C442071444603E02846FFF7BDFFAE
:1094B00000240136E9E72046BDE8F883F7B5074602
:1094C0001E46DDB2002405F07F0302A8ED0920440A
:1094D00018BF43F08003013400F8043CE4B2002DCF
:1094E000F1D1C4F1040302EB030ED154A54206DA14
:1094F00001A9695C131B2B4459710135F6E73868E3
:10950000721C03682244DB68714698470546FDF7E4
:10951000D3FD0134C7F888002644E8B2831B5842C3
:10952000584103B0F0BD023370B59BB20025ACB218
:1095300001354E1916F8016C181980B20EB1165487
:10954000F5E7031B1A44231202F8023C02F8014C0F
:1095500070BD38B50546006858B103681B6B984765
:10956000044628B928680368DB6A9847204638BD56
:10957000012038BD2DE9F04F85B004468A4690465B
:109580001F46DDF83890FFF7E4FF0646002840F05C
:10959000A2802568D4F89C102B6829B15B6A284604
:1095A000B4F8A02098470BE0D4F8981001A8D3F89D
:1095B00020B0FDF7FBFF284601A9B4F8A020D8474A
:1095C000002800F08380464A012310685168A4F8FF
:1095D000843001AB03C3127A01A81A700023E21889
:1095E000C15C0133092B5172F9D1B9F1000F0AD0D6
:1095F0009DF840509DF83C306D0145F0060545EA68
:10960000C305EDB200E00225B8F1000F05D017B98F
:1096100045F0800501E045F0C0050023A574E37422
:10962000251D0F2323752046112351462A46FFF797
:109630007AFF0346B9F1000F0BD049462A4620466F
:10964000FFF771FF119903462A462046FFF76BFF8B
:109650000346B8F1000F0CD0204641462A46FFF7DA
:1096600062FF03462FB1204639462A46FFF75BFFCB
:109670000346053B10212A469BB22046FFF71EFFFA
:10968000FDF71AFDC4F88800C4F88C002068036850
:109690001B69984748B9FDF70FFDD4F88C3043F6A5
:1096A0009822C01A9042F1D910E020460DF1030132
:1096B000FFF7C9FE042809D1E5793DB9FDF7FCFCA7
:1096C0000126C4F88C0084F8905005E020680368F7
:1096D000DB6A984700E00026304605B0BDE8F08F11
:1096E000326101081FB58DE80C009DF8183000228A
:1096F0000293079B03931346FFF73CFF05B05DF809
:1097000004FB2DE9F04704460E46924699469DF823
:109710002080FFF71EFF08B3251D314620462A464C
:109720000523FFF700FF00218FB246184F45B6B260
:1097300001F1010104D21AF8073026443371F3E72E
:10974000B8F1000FA6F1050320462A4614BF3121C7
:1097500030219BB2BDE8F047FFF7B0BEBDE8F0870F
:1097600073B50546104614460E460AF0C1FB0022AA
:1097700003460092284631462246FFF7C2FF02B058
:1097800070BD012A2DE9F04104460F46154621D847
:10979000FFF7DFFEF0B1B4F8843001339BB203B9B8
:1097A0000123A4F88430B4F88430261D1A126272A2
:1097B000A3723946324620460723FFF7B4FE23182A
:1097C0001D71031F3246204682219BB2BDE8F04145
:1097D000FFF774BE0020BDE8F0810022FFF7D1BF83
:1097E00070B504460D46FFF7B4FE50B12B126372FC
:1097F000A5722046221D40210223BDE87040FFF7DC
:109800005DBE70BD2DE9F04383B000AF0446FFF7A5
:10981000A0FE002800F09880FDF74EFCD4F88C30B4
:109820000546C21A43F698239A4204D8D4F88820F1
:10983000821A9A4217D994F89030206823B10368AD
:10984000DB6A984700207FE0C022227163710368C1
:10985000211DDB68022298470123C4F88850C4F810
:109860008C5084F89030206803681B699847002862
:1098700069D02046F91DFFF7E6FD8046002862D03A
:109880002279C4F88C5002F0F002302A48D1D4F882
:109890009430002B57D0FD796E4661194A798B7947
:1098A00003EB02239BB203F10802D208A6EBC2002D
:1098B000854600221FFA82FE9E4507D201EB020E6A
:1098C0009EF807E000F802E00132F3E70022C254FC
:1098D0002279D4F894C012F0020F05F10302C5EB0F
:1098E00008081A4414D02244517992F80490C3EB2A
:1098F000080201EB0929691D194421441FFA89F95D
:109900000431053AE04720464946FFF769FF05E084
:10991000A118A8F103020431D21AE047B54612E0BB
:10992000C02A0BD1D0232146237151F8040B002308
:10993000637103680222DB68984704E0D02A04BF01
:10994000002384F8903001200C37BD46BDE8F08339
:1099500013B5084C002100910A460B462046FDF73E
:1099600019FE0549054A204602B0BDE810400AF03C
:10997000ABB800BF74170020195A0008F407002084
:1099800038B504462175084682F00101A175E175DC
:109990001421A160FA210025E1604FF47A7162750B
:1099A000A56125602571E561216112B90BB1022124
:1099B00000E00321FDF77AFA204638BD38B50446A9
:1099C000FDF77AFB0546207DFDF734FB637D003013
:1099D00018BF0120A07513B980F00100A075E27DC9
:1099E000A37D9A4218BFE561E069A268281A9042F7
:1099F00007DD22799A4204D0237113B1A2690132A2
:109A0000A26122792AB9E16888420ADDA169216050
:109A100006E02269904204DDA269524222600022DF
:109A2000A261E37538BD000013B5084C0021009118
:109A30000A460B462046FDF7ADFD0549054A20467E
:109A400002B0BDE810400AF03FB800BF7C1700200C
:109A5000195A0008F407002038B5018001EB4101D4
:109A60008DB2044645800371427128460AF07CF8A5
:109A7000A06018B100212A460AF0C7F8204638BD78
:109A800010B50446806808B10AF076F860790121C3
:109A9000FDF70CFA204610BD10B5002104464079B0
:109AA000FDF704FA60790021BDE81040FDF784BAA3
:109AB00030B5836885B00446002B00F01382FDF7B3
:109AC000FDFAE368C01A3128F9D972B622796388A1
:109AD000022AADF80630A36840F05081BDF8062098
:109AE00092B2002A00F09E804FF400020392BDF86B
:109AF0000620DD1C013A92B2ADF806201A78D2B2E7
:109B00008DF803205A78D2B28DF804209B78DBB20E
:109B10008DF805309DF803109DF804309DF8052060
:109B20001B0243EA01431343029300238DF80230E2
:109B30006179182251433E4B581880885958086162
:109B40000299039808422FD0004600BF00BF00BF13
:109B500000BF00BF00BF00BF00BF00BF00BF00BF0D
:109B600000BF00BF00BF00BF00BF00BF00BF00BFFD
:109B700000BF00BF00BF00BF00BF00BF00BF00BFED
:109B800000BF00BF00BF00BF00BF00BF00BF00BFDD
:109B900000BF00BF00BF00BF00BF61794A439918F2
:109BA0009B588A885A6130E0004600BF00BF00BF62
:109BB00000BF00BF61794A4399189B588A885A614F
:109BC000004600BF00BF00BF00BF00BF00BF00BF16
:109BD00000BF00BF00BF00BF00BF00BF00BF00BF8D
:109BE00000BF00BF00BF00BF00BF00BF00BF00BF7D
:109BF00000BF00BF00BF00BF00BF00BF00BF00BF6D
:109C000000BF00BF00BF00BF00BF039B5B08039302
:109C10009DF802300133DBB2172B8DF8023087D963
:109C20002B465BE762B6FDF749FAE0605AE100BFF8
:109C300010000020617918225143664B5818808823
:109C40005958086102990398084200F0C5800046FF
:109C500000BF00BF00BF00BF00BF00BF00BF00BF0C
:109C600000BF00BF00BF00BF00BF00BF00BF00BFFC
:109C700000BF00BF00BF00BF00BF00BF00BF00BFEC
:109C800000BF00BF00BF00BF00BF00BF00BF00BFDC
:109C900000BF00BF00BF00BF00BF00BF00BF00BFCC
:109CA00000BF00BF00BF00BF00BF00BF00BF00BFBC
:109CB00000BF00BF00BF00BF00BF00BF00BF00BFAC
:109CC00000BF00BF00BF00BF00BF00BF00BF00BF9C
:109CD00000BF00BF00BF00BF00BF00BF00BF617971
:109CE0004A4399189B588A885A61004600BF00BFB2
:109CF00000BF00BF00BF00BF00BF00BF00BF00BF6C
:109D000000BF00BF00BF00BF00BF00BF00BF00BF5B
:109D100000BF00BF00BF00BF00BF00BF00BF00BF4B
:109D200000BF00BF00BF00BF00BF00BF00BF00BF3B
:109D300000BF00BF00BF00BF00BF00BF00BF00BF2B
:109D400000BF00BF00BF00BF00BF00BF00BF00BF1B
:109D500000BF00BF00BF00BF00BF00BF00BF00BF0B
:109D600000BF039B5B0803939DF802300133DBB215
:109D7000172B8DF802307FF65DAF2B46BDF806201D
:109D800092B2002A3FF44EAF4FF400020392BDF8A6
:109D90000620DD1C013A92B2ADF806201A78D2B244
:109DA0008DF803205A78D2B28DF804209B78DBB26C
:109DB0008DF805309DF803109DF804309DF80520BE
:109DC0001B0243EA01431343029300238DF8023040
:109DD00030E700BF10000020004600BF00BF00BFFA
:109DE00000BF00BF00BF00BF00BF00BF00BF00BF7B
:109DF00000BF00BF00BF00BF00BF00BF61794A4382
:109E000099189B588A885A61004600BF00BF00BF5E
:109E100000BF00BF00BF00BF00BF00BF00BF00BF4A
:109E200000BF00BF00BF00BF00BF00BF00BF00BF3A
:109E300000BF00BF00BF00BF00BF00BF00BF00BF2A
:109E400000BF00BF00BF00BF00BF00BF00BF00BF1A
:109E500000BF00BF00BF00BF00BF00BF00BF00BF0A
:109E600000BF00BF00BF00BF00BF00BF00BF00BFFA
:109E700000BF00BF00BF00BF00BF00BF00BF00BFEA
:109E800000BF00BF00BF00BF00BF00BF00BF00BFDA
:109E900000BF00BF00BF00BF00BF00BF00BF00BFCA
:109EA00000BF00BF00BF00BF00BF00BF00BF00BFBA
:109EB00000BF00BF00BF00BF00BF00BF00BF00BFAA
:109EC00000BF00BF00BF00BF00BF00BF00BF00BF9A
:109ED00000BF00BF00BF00BF00BF00BF00BF00BF8A
:109EE00000BF3EE705B030BD70B504889DF8105046
:109EF0008C4215D984792CB1624363436543120ABD
:109F00001B0A2D0A866801EB4101007974180228AA
:109F100004F102000BBF73547254627063700570D9
:109F200070BD0388F0B58B421AD98379C2F3074715
:109F3000C2F30725D2B22BB15F435D435A433F0AB8
:109F40002D0A120A8668037901EB41017418022B6D
:109F500004F102030BBF75547754677065701A7073
:109F6000F0BD000013B5084C002100910A460B46D5
:109F70002046FDF70FFB0549054A204602B0BDE823
:109F8000104009F0A1BD00BF84170020195A000835
:109F9000F4070020027B02F0CF026FF3030202738A
:109FA00000228260426002607047052907D800EBFA
:109FB0000111087B10F00F0018BF0120704700202E
:109FC000704738B504460D46FFF7EFFF58B1290139
:109FD0006318187B002200F0EF006FF30300187382
:109FE00062505A609A6038BD70B50446054600F16B
:109FF000600628461035FFF7CDFFB542F9D10025A0
:10A0000084F86050E9B220460135FFF7DAFF062DEB
:10A01000F8D1204670BD000013B50A4C00210B4654
:10A0200000910A462046FDF7B5FA20460649074A40
:10A0300009F04AFD04F1080002B0BDE81040FFF746
:10A04000D3BF00BF8C170020195A0008F407002066
:10A05000002100F004B80E4B5B58435004310D480A
:10A060000D4B42189A42FFF4F6AF0C4A00F003B8C9
:10A07000002342F8043B0A4B9A42FFF4F9AF03F085
:10A08000CBF9FCF7B1F8FCF731FBFCF7FBF87047B4
:10A090005C900108000000207C0400207C0400206B
:10A0A00068210020FFF7FEBF0B0A017043700B0C04
:10A0B000090E8370C170043070470170090A417045
:10A0C0000230704743185A78435C03EB022080B299
:10A0D000704710B543189A78DC78415C120402EBA3
:10A0E000046258780A4402EB002010BD73B544792D
:10A0F0000023022C01930FD0032C19D0012C2BD15B
:10A10000164D2B692E4623B12B6901A898470246AC
:10A11000B8B9B16801201BE0104DEB682E4623B1A1
:10A12000EB6801A89847024658B9B16802200FE0D1
:10A130000A4D6B692E464BB16B6901A898470246E0
:10A1400020B1A9682046BDF8043003E0B1680320BF
:10A150000022134600F03CFC02B070BDA0180020A5
:10A16000072870B518D8012916D80125854001FAAD
:10A1700000F0ED43094B1A68BFF35F8F05EA020454
:10A18000044353E8001F914203D143E80046002EE8
:10A19000F7D1BFF35F8FEDD170BD00BF4C0300203E
:10A1A00070B5012186B00546FFF78CFF43040446D5
:10A1B0003BD5B0F5824F38D128460521FFF782FF05
:10A1C00005EB8000EE1D0024C51DAE4206D03046D2
:10A1D0000221FFF777FF04360444F6E77B4BBFF319
:10A1E0005F8FD3E85F0F2044C3E8510F0029F8D1F7
:10A1F000BFF35F8F03F10C02BFF35F8F52E8000FD4
:10A20000204442E800010029F8D1BFF35F8F303BC2
:10A21000D96B9A6B914240F0CA8093F84020002A93
:10A2200000F0C5809B69992031E024F4FF4020F0C4
:10A230007F0080B2002800F0978048F210039C4213
:10A2400028D00CD8B4F5004F40F2BC8048F202038D
:10A250009C4215D948F204039C4211D0B2E048F266
:10A2600080039C420CD004D848F240039C424FD05B
:10A27000A8E0B4F5024F03D0B4F5084F6BD0A1E0CD
:10A28000534B9A69002A00F092809B692046002176
:10A290000A4667E00023EA1852790DF803200133DB
:10A2A000042BF8D16B7A05F10D008DF80430AB7AF0
:10A2B0008DF80530EB7A8DF806302B7B8DF8073062
:10A2C000002300AA1A44C15C0133042B1172F8D197
:10A2D00005F11100002300AA1A44C15C0133042BCC
:10A2E0001173F8D105F11500002300AA1A44C15CCE
:10A2F0000133042B1174F8D12B798DF81430344BC1
:10A300009A69002A53D09B6920466946152229E0A4
:10A31000053500212846FFF7DCFE04210090284681
:10A32000FFF7D7FE082101902846FFF7D2FE0C2147
:10A3300002902846FFF7CDFE102103902846FFF734
:10A34000C8FE234B04909A69002A30D09B692046AE
:10A350006946142206E01E4B9A6942B39B69204667
:10A36000691D0122984722E041F203039C4205D077
:10A37000A4F580530E3B9BB2012B1AD86C1D2046CE
:10A380000421FFF7A6FE39301CD12A79104B002199
:10A390002046DA62FFF79DFE042105462046FFF7BE
:10A3A00098FE393003D128460121FFF7D9FE01205C
:10A3B00009E0074B1B889BB29C4204D0B4F5805F38
:10A3C000F5D100E0002006B070BD00BFD01800201D
:10A3D000A018002070B50E4C6688B6B2B6B16068A1
:10A3E00005782B1F5D425D412DB1FFF7D9FE00308E
:10A3F00018BF012000E02846064618B935B194F888
:10A4000041301BB90023638001F090FD304670BDE0
:10A41000A01800202DE9F04F85B004468A469146E9
:10A4200002F0C0FE00250190DFF80883B8F8023082
:10A4300046469BB2002B40F0938003F06FFC02F085
:10A44000B1FE0290029A019BD31A0393039B002B47
:10A4500003DA019B029A13440393B54B1B68002B4C
:10A46000E2D0039A9A42DFD3338841F207029BB2CB
:10A47000934227D841F20602934261D240F202226F
:10A4800093425DD00FD80C2B08D8082B58D2002B44
:10A490004FD0062B88BF00235AD851E00D2B4CD04B
:10A4A00040F201220BE041F2020293424BD8B3F595
:10A4B000805F45D8B3F5017F3FD940F20722934230
:10A4C00037D13AE041F21102934236D014D841F22A
:10A4D0000B02934234D005D841F2090293422FD0A7
:10A4E00031D82AE041F20F0293422CD028D841F211
:10A4F0000D02934227D01CE042F2060293421CD088
:10A5000007D8B3F5005F14D942F20402934221D870
:10A5100013E0B3F5804F00F0F28105D8A3F50053A6
:10A52000083B012B09D904E044F20B02934200F0EE
:10A53000E6810B2003F064F8E1E1FF232370DEE104
:10A540004FF0FF3304E04FF0FF3323606360D6E148
:10A550002360D4E1204600213A2209F056FBCEE1E7
:10A56000D8F804603378042B40F07D810121304617
:10A57000FFF7A8FD05463046FFF712FE014600280A
:10A5800040F0668141F207039D4206F1050752D86B
:10A5900041F206039D4280F0AC8040F202239D42CE
:10A5A00000F0A78011D80C2D09D8082D80F0A180CB
:10A5B000002D00F04D81062D00F2E88099E00D2D70
:10A5C00000F0948040F201237EE041F202039D42BC
:10A5D00018D8B5F5805F00F28C80B5F5017F40F2A8
:10A5E000858040F207239D4240F03281337938461E
:10A5F00004F8013B0021FFF76CFD01462046FFF700
:10A6000053FD25E141F204039D4200F0958040F2A4
:10A61000AB8000213846FFF75CFD042120603846FE
:10A62000FFF757FD083444F8040C06F10D032246E9
:10A6300006F11D0175E041F211039D4256D02BD861
:10A6400041F20B039D4254D01CD841F209039D42B4
:10A650004FD000F2968000213846FFF73AFD0421E2
:10A6600020603846FFF735FD082160603846FFF767
:10A6700030FD0C21A0603846FFF72BFD04F10C0BD8
:10A68000E060E4E041F20F039D426DD037D841F223
:10A690000D039D4250D0DBE042F205039D4200F0E5
:10A6A000998007D841F212039D4235D0B5F5005F7D
:10A6B0001CD8CDE042F209039D4208D842F20803BB
:10A6C0009D4213D242F206039D420FD0C0E044F2F5
:10A6D0000B039D4240F0BC80737938460121A8F8F5
:10A6E0003030FFF7EFFCA8F83200B1E03379237087
:10A6F000AEE038460021FFF7ECFC2060A8E0002126
:10A700003846FFF7E6FCA3464BF8040B0421384615
:10A71000FFF7DFFC60609AE03846FFF7D3FC20804B
:10A7200096E053F8040B8B4242F8040BF9D18FE00A
:10A73000F8170020A018002000213846FFF7C9FCB8
:10A74000042120603846FFF7C4FC082160603846C9
:10A75000FFF7BFFCE36804F1080B3933A06076D142
:10A760000121FFF7FDFC72E000213846FFF7B1FC44
:10A77000042120603846FFF7ACFC083444F8040C90
:10A7800066E0337923713B68236061E0002138463D
:10A79000FFF79FFC042120603846FFF79AFC082150
:10A7A00060603846FFF78EFC0A21A0603846FFF74C
:10A7B00089FC0C3444F8020C06F11103224606F120
:10A7C000350153F8040B8B4242F8040BF9D11B8876
:10A7D00013803DE073185B79635401310429F9D18A
:10A7E00006F109000023C15CE2180133042B11714A
:10A7F000F9D106F10D000023C15CE2180133042BEE
:10A800001172F9D106F111000023C15CE218013385
:10A81000042B1173F9D106F115000023C15CE21875
:10A820000133042B1174F9D106F119000023C15C26
:10A83000E2180133062B1175F9D106F11F00002330
:10A84000C15CE2180133202B9176F9D100E05C461F
:10A85000B8F800202C4B92B2954236D100221A80D3
:10A8600083F8412031E0B8F836309BB26BB3304604
:10A87000032196F802B0FFF725FC0746BAF1000F56
:10A880000BD00421701DFFF724FC06F115010246D0
:10A89000C9F80000504609F094F9CBEB07077B1E7E
:10A8A000B3F5806F07D20BF10501204631443A46DB
:10A8B00009F087F901E04FF0FF37B9F1000F01D03F
:10A8C000C9F800700023A8F836300023A8F8023039
:10A8D00001F02CFB3378042B05D1B5F5805F02D154
:10A8E0003046FFF703FCB8F800309BB2002B7FF432
:10A8F0009BAD054BDB8E9BB2002B7FF495AD00200A
:10A9000005B0BDE8F08F00BFA018002007284FF069
:10A91000010308D803FA00F0044A126810420CBF81
:10A920000020012070471846704700BF4C030020EC
:10A93000034B1880084600210A46FFF76BBD00BF95
:10A94000A018002010B5034B0124DC86BDE81040A0
:10A95000FFF760BDA018002038B503461546012258
:10A960004A710C46881D1946FFF7A7FB291D057083
:10A97000204601F045FB002038BD38B5BDF8145025
:10A980000C462B44D518ADB202216171A071E27161
:10A99000294604F10800FFF790FB691D204689B2A3
:10A9A00001F02EFB002038BD38B513440C469DB293
:10A9B00002216171A0712946E27104F10800FFF7DC
:10A9C0007CFB691D204689B2BDE8384001F018BB08
:10A9D0002DE9F84F1C4604F1020B032301F107098E
:10A9E0001FFA8BFB88710D464B7148465946164637
:10A9F000FFF763FBB4F57A7F824605F10B0812D8A6
:10AA00002146FFF75AFB21465046FFF756FB3146D9
:10AA10004046224609F0D5F8A11D284689B2BDE876
:10AA2000F84F01F0EDBA4FF47A77B4FBF7F30BEB84
:10AA3000430189B2FFF741FB39465046FFF73DFB22
:10AA4000314640463A4609F0BCF8A4F57A742846E7
:10AA500040F2EE31A4B23E4401F0D2FAB4F57A7F6E
:10AA600084BFA4F57A74A7B2A84688BF4FF47A745D
:10AA7000314628F8054F4846224698BF002709F07E
:10AA8000A0F8A11C404689B2264401F0B9FA0FB1E2
:10AA90003C46E3E7BDE8F88FF7B51E46FF238DF887
:10AAA0000730194B00259C68475D63190135042D5B
:10AAB0005F72F9D100200D5C2318013004285D730A
:10AAC000F9D10021505C6318013104295874F9D17F
:10AAD00004F115000021FFF7E7FA0022B35C83546C
