:020000040800F2
:1050000000500020A99F0008E98A0008EB8A0008E8
:10501000F58A0008FF8A0008098B000800000000DC
:10502000000000000000000000000000138B0008DA
:10503000158B000800000000178B0008198B000872
:10504000FD9F0008FD9F0008FD9F00087D8D000862
:10505000FD9F0008FD9F0008898B0008A98B0008B0
:10506000C98B0008FD8B00081D8C0008FD9F0008FF
:10507000FD9F0008FD9F0008FD9F0008E58D0008CA
:10508000FD9F0008FD9F0008298B0008FD9F000878
:10509000E98D0008FD9F0008FD9F00083D8C000879
:1050A000FD9F0008FD9F0008FD9F0008058D00087A
:1050B0004D8D00085D8D00086D8D0008598B00082E
:1050C000698B0008FD9F0008FD9F0008798B000890
:1050D000FD9F0008398B0008498B0008FD9F0008E0
:1050E0008D8C0008A58D0008FD9F000800000000C1
:1050F00000000000000000000000000000000000B0
:0C51000000000000000000005FF808F153
:1051100010F8012B11F8013B012A28BF9A42F7D061
:10512000D01A704781F0004102E000BF83F00043D5
:1051300030B54FEA41044FEA430594EA050F08BF32
:1051400090EA020F1FBF54EA000C55EA020C7FEAF6
:10515000645C7FEA655C00F0E2804FEA5454D4EB73
:105160005555B8BF6D420CDD2C4480EA020281EA3D
:10517000030382EA000083EA010180EA020281EA75
:105180000303362D88BF30BD11F0004F4FEA0131C7
:105190004FF4801C4CEA113102D0404261EB4101D6
:1051A00013F0004F4FEA03334CEA133302D052425C
:1051B00063EB430394EA050F00F0A780A4F1010418
:1051C000D5F1200E0DDB02FA0EFC22FA05F2801852
:1051D00041F1000103FA0EF2801843FA05F3594138
:1051E0000EE0A5F120050EF1200E012A03FA0EFCB7
:1051F00028BF4CF0020C43FA05F3C01851EBE371E1
:1052000001F0004507D54FF0000EDCF1000C7EEBFD
:1052100000006EEB0101B1F5801F1BD3B1F5001F3B
:105220000CD349085FEA30004FEA3C0C04F101045A
:105230004FEA445212F5800F80F09A80BCF1004F83
:1052400008BF5FEA500C50F1000041EB045141EA05
:10525000050130BD5FEA4C0C404141EB010111F406
:10526000801FA4F10104E9D191F0000F04BF0146B1
:105270000020B1FA81F308BF2033A3F10B03B3F18F
:1052800020020CDA0C3208DD02F1140CC2F10C021F
:1052900001FA0CF021FA02F10CE002F11402D8BF7D
:1052A000C2F1200C01FA02F120FA0CFCDCBF41EA49
:1052B0000C019040E41AA2BF01EB0451294330BD18
:1052C0006FEA04041F3C1CDA0C340EDC04F11404F5
:1052D000C4F1200220FA04F001FA02F340EA0300CC
:1052E00021FA04F345EA030130BDC4F10C04C4F112
:1052F000200220FA02F001FA04F340EA03002946F2
:1053000030BD21FA04F0294630BD94F0000F83F43B
:10531000801306BF81F480110134013D4EE77FEA1E
:10532000645C18BF7FEA655C29D094EA050F08BF6A
:1053300090EA020F05D054EA000C04BF194610464B
:1053400030BD91EA030F1EBF0021002030BD5FEA8F
:10535000545C05D14000494128BF41F0004130BDB7
:1053600014F580043CBF01F5801130BD01F000450B
:1053700045F0FE4141F470014FF0000030BD7FEA7E
:10538000645C1ABF194610467FEA655C1CBF0B4679
:10539000024650EA013406BF52EA033591EA030F90
:1053A00041F4002130BD00BF90F0000F04BF002188
:1053B000704730B54FF4806404F132044FF00005BB
:1053C0004FF0000150E700BF90F0000F04BF002134
:1053D000704730B54FF4806404F1320410F000459A
:1053E00048BF40424FF000013EE700BF42004FEA95
:1053F000E2014FEA31014FEA02701FBF12F07F4312
:1054000093F07F4F81F06051704792F0000F14BF0E
:1054100093F07F4F704730B54FF4607401F0004552
:1054200021F0004120E700BF50EA010208BF7047A9
:1054300030B54FF000050AE050EA010208BF70479E
:1054400030B511F0004502D5404261EB41014FF407
:10545000806404F132045FEA915C3FF4DCAE4FF00B
:1054600003025FEADC0C18BF03325FEADC0C18BFF2
:10547000033202EBDC02C2F1200300FA03FC20FA43
:1054800002F001FA03FE40EA0E0021FA02F1144490
:10549000C1E600BF70B54FF0FF0C4CF4E06C1CEAA5
:1054A00011541DBF1CEA135594EA0C0F95EA0C0F1A
:1054B00000F0DEF82C4481EA030621EA4C5123EA8D
:1054C0004C5350EA013518BF52EA033541F48011BC
:1054D00043F4801338D0A0FB02CE4FF00005E1FB6F
:1054E00002E506F00042E0FB03E54FF00006E1FBB9
:1054F00003569CF0000F18BF4EF0010EA4F1FF04FC
:10550000B6F5007F64F5407404D25FEA4E0E6D413B
:1055100046EB060642EAC62141EA55514FEAC5204C
:1055200040EA5E504FEACE2EB4F1FD0C88BFBCF5C8
:10553000E06F1ED8BEF1004F08BF5FEA500E50F179
:10554000000041EB045170BD06F0004646EA01013F
:1055500040EA020081EA0301B4EB5C04C2BFD4EB71
:105560000C0541EA045170BD41F480114FF0000E6A
:10557000013C00F3AB8014F1360FDEBF002001F0D8
:10558000004170BDC4F10004203C35DA0C341BDC52
:1055900004F11404C4F1200500FA05F320FA04F024
:1055A00001FA05F240EA020001F0004221F0004158
:1055B00010EBD37021FA04F642EB06015EEA430ECB
:1055C00008BF20EAD37070BDC4F10C04C4F12005FB
:1055D00000FA04F320FA05F001FA04F240EA0200AE
:1055E00001F0004110EBD37041F100015EEA430E7F
:1055F00008BF20EAD37070BDC4F1200500FA05F29F
:105600004EEA020E20FA04F301FA05F243EA02031D
:1056100021FA04F001F0004121FA04F220EA02002C
:1056200000EBD3705EEA430E08BF20EAD37070BD72
:1056300094F0000F0FD101F00046400041EB010152
:1056400011F4801F08BF013CF7D041EA060195F034
:10565000000F18BF704703F00046520043EB0303EE
:1056600013F4801F08BF013DF7D043EA06037047DB
:1056700094EA0C0F0CEA135518BF95EA0C0F0CD0E6
:1056800050EA410618BF52EA4306D1D181EA03012C
:1056900001F000414FF0000070BD50EA410606BF26
:1056A0001046194652EA430619D094EA0C0F02D16B
:1056B00050EA013613D195EA0C0F05D152EA0336B0
:1056C0001CBF104619460AD181EA030101F00041CE
:1056D00041F0FE4141F470014FF0000070BD41F017
:1056E000FE4141F4780170BD70B54FF0FF0C4CF4F1
:1056F000E06C1CEA11541DBF1CEA135594EA0C0F10
:1057000095EA0C0F00F0A7F8A4EB050481EA030E5C
:1057100052EA03354FEA013100F088804FEA033343
:105720004FF0805545EA131343EA12634FEA022211
:1057300045EA111545EA10654FEA00260EF00041D2
:105740009D4208BF964244F1FD0404F5407402D224
:105750005B084FEA3202B61A65EB03055B084FEAB5
:1057600032024FF480104FF4002CB6EB020E75EBB2
:10577000030E22BFB61A754640EA0C005B084FEADA
:105780003202B6EB020E75EB030E22BFB61A754657
:1057900040EA5C005B084FEA3202B6EB020E75EBA2
:1057A000030E22BFB61A754640EA9C005B084FEA1A
:1057B0003202B6EB020E75EB030E22BFB61A754627
:1057C00040EADC0055EA060E18D04FEA051545EA16
:1057D00016754FEA06164FEAC30343EA52734FEABF
:1057E000C2025FEA1C1CC0D111F4801F0BD141EA38
:1057F00000014FF000004FF0004CB6E711F4801F9D
:1058000004BF01430020B4F1FD0C88BFBCF5E06F7C
:105810003FF6AFAEB5EB030C04BFB6EB020C5FEA8C
:10582000500C50F1000041EB045170BD0EF0004EE1
:105830004EEA113114EB5C04C2BFD4EB0C0541EA13
:10584000045170BD41F480114FF0000E013C90E610
:1058500045EA060E8DE60CEA135594EA0C0F08BFD4
:1058600095EA0C0F3FF43BAF94EA0C0F0AD150EAD3
:1058700001347FF434AF95EA0C0F7FF425AF104666
:1058800019462CE795EA0C0F06D152EA03353FF48E
:10589000FDAE1046194622E750EA410618BF52EA0B
:1058A00043067FF4C5AE50EA41047FF40DAF52EADF
:1058B00043057FF4EBAE12E74FF0FF3C06E000BF7C
:1058C0004FF0010C02E000BF4FF0010C4DF804CD89
:1058D0004FEA410C7FEA6C5C4FEA430C18BF7FEA49
:1058E0006C5C1BD001B050EA410C0CBF52EA430C77
:1058F00091EA030F02BF90EA020F0020704710F1F7
:10590000000F91EA030F58BF994208BF90422CBF85
:10591000D8176FEAE37040F0010070474FEA410C7E
:105920007FEA6C5C02D150EA013C07D14FEA430C9C
:105930007FEA6C5CD6D152EA033CD3D05DF8040B0D
:10594000704700BF8446104662468C46194663463F
:1059500000E000BF01B5FFF7B7FF002848BF10F116
:10596000000F01BD4DF808EDFFF7F4FF0CBF01205B
:1059700000205DF808FB00BF4DF808EDFFF7EAFFD7
:1059800034BF012000205DF808FB00BF4DF808ED92
:10599000FFF7E0FF94BF012000205DF808FB00BF87
:1059A0004DF808EDFFF7CEFF94BF012000205DF811
:1059B00008FB00BF4DF808EDFFF7C4FF34BF01201E
:1059C00000205DF808FB00BF4FEA410212F500120B
:1059D00015D211D56FF47873B3EB625212D94FEA36
:1059E000C12343F0004343EA505311F0004F23FA20
:1059F00002F018BF404270474FF00000704750EA75
:105A0000013005D111F0004008BF6FF00040704731
:105A10004FF00000704700BF014B0360704700BFAC
:105A2000E05E0108014B0360704700BFF85E0108AB
:105A300010B5034B0446036000F064FE204610BD21
:105A4000E05E010810B5034B0446036000F05AFE07
:105A5000204610BDF85E010830B505460846002115
:105A600091B081540DF0F7FF29460446684601F0D5
:105A70000BFF42490CA801F029FF41490CA801F095
:105A800047FF014604A801F021FF0CA801F0BAFE6F
:105A9000684604A901F064FF20B13A480221224679
:105AA00004F049FA354908A801F010FF364908A862
:105AB00001F02EFF01460CA801F008FF0CA904A874
:105AC00001F0F5FE0CA801F09DFE08A801F09AFE79
:105AD000684604A901F044FF20B12A48012122466A
:105AE00004F029FA254908A801F0F0FE274908A882
:105AF00001F00EFF01460CA801F0E8FE0CA904A875
:105B000001F0D5FE0CA801F07DFE08A801F07AFE98
:105B1000684604A901F024FF20B11A480321224657
:105B200004F009FA154908A801F0D0FE184908A8A0
:105B300001F0EEFE01460CA801F0C8FE0CA904A875
:105B400001F0B5FE0CA801F05DFE08A801F05AFEB8
:105B5000684604A901F004FF20B10A48002122464A
:105B600004F0E9F9074803F0ADFF04A801F04AFE8C
:105B7000684601F047FE11B030BD00BF7C04002034
:105B80001C8901088C04002026890108308901083D
:105B90003A8901082DE9F0438FB002AF00F03EFFD3
:105BA0000020014601F058F90120022101F054F9CA
:105BB0000220914C014601F04FF90320022101F02F
:105BC0004BF904F110060420022101F045F91421DB
:105BD000FA224FF47A733046A162E2622363A16431
:105BE000E2642365A166E2662367C4F88810C4F8FE
:105BF0008C20C4F8903003F059FF304603F062FF68
:105C00004FF0FF0800210025CDF8008030460A46FD
:105C10000B4604F073F9009530462A4643460121AD
:105C200004F06CF90095304642462B46022104F000
:105C300065F94246434600953046032104F05EF97B
:105C4000304603F03FFFDFF8D0916C4B04F1A00821
:105C50004A460095019340462B46694903F04CFDA6
:105C6000214607F1200001F031FE07F120006549CF
:105C700001F04EFE0146384601F028FE07F12000F3
:105C800001F0C0FDBA68384602F1080323F00703AB
:105C9000ADEB030D02AE2B460132314601F06EFE34
:105CA0003146404603F0A3FD214607F1100001F004
:105CB0000DFE07F11000544901F02AFE014607F1DC
:105CC000200001F003FE07F12001384601F0EFFD4E
:105CD00007F1200001F096FD07F1100001F092FDA0
:105CE000BA682B4601323846314601F047FE31464C
:105CF000404603F07CFD214607F1100001F0E6FD6F
:105D000007F11000414901F003FE014607F12000B0
:105D100001F0DCFD07F12001384601F0C8FD07F174
:105D2000200001F06FFD07F1100001F06BFDBA6873
:105D30002B4601323846314601F020FE31464046BE
:105D400003F055FD214607F1100001F0BFFD07F1FA
:105D500010002F4901F0DCFD014607F1200001F0A1
:105D6000B5FD07F12001384601F0A1FD07F1200043
:105D700001F048FD07F1100001F044FDBA682B4620
:105D800001323846314601F0F9FD3146404603F014
:105D90002EFD04F5A27107F1200001F097FD07F137
:105DA00020001C4901F0B4FD014607F1100001F08C
:105DB0008DFD07F1200001F025FDBA6907F1100003
:105DC00002F1080323F00703ADEB030D02AC2B46F1
:105DD0002146013201F0D2FD49462246404603F0F9
:105DE000C9FC07F1100001F00DFD384601F00AFD75
:105DF0003437BD46BDE8F0837C0400206589010886
:105E0000448901081C890108268901083089010894
:105E10003A8901087889010857890108F0B5904C42
:105E20008BB004F1200002AF03F0D2FD04F140007A
:105E300003F0CEFD04F1600003F0CAFD04F1800020
:105E400003F0C6FD206A88B30A2204F5AA7101F0A6
:105E5000CDFC04F5AE7107F1100001F037FD81496A
:105E600007F1100001F054FD0146384601F02EFD07
:105E700007F1100001F0C6FCBA686E4602F1080393
:105E800023F00703ADEB030D02AD0023384629468E
:105E9000013201F073FD294604F5AA7204F1A00055
:105EA00003F068FC384601F0ADFCB546206C70B3D9
:105EB0000A226D4901F09AFC6C4907F1100001F0CB
:105EC00005FD6B4907F1100001F022FD014638463F
:105ED00001F0FCFC07F1100001F094FCBA686E467A
:105EE00002F1080323F00703ADEB030D02AD00231D
:105EF00038462946013201F041FD5E48294600F14D
:105F0000B40203F037FC384601F07CFCB546206E45
:105F100070B30A22544901F069FC544907F110009A
:105F200001F0D4FC544907F1100001F0F1FC0146E6
:105F3000384601F0CBFC07F1100001F063FCBA68B1
:105F40006E4602F1080323F00703ADEB030D02AD2B
:105F5000002338462946013201F010FD4548294604
:105F600000F1B40203F006FC384601F04BFCB546E4
:105F7000D4F8800070B30A223B4901F037FC3B495A
:105F800007F1100001F0A2FC3C4907F1100001F0FC
:105F9000BFFC0146384601F099FC07F1100001F002
:105FA00031FCBA686D4602F1080323F00703ADEB3C
:105FB000030D02AC002338462146013201F0DEFC1D
:105FC0002C48214600F1B40203F0D4FB384601F01E
:105FD00019FCAD46274803F0C6FA044618B1254817
:105FE00003F01AFC38E0264B009001932148254924
:105FF000254A234603F080FB50B3244907F11000E3
:1060000001F064FC224907F1100001F081FC014617
:10601000384601F05BFC07F1100001F0F3FBBA68B1
:106020006E4602F1080323F00703ADEB030D02AD4A
:10603000234638462946013201F0A0FC12492A467F
:106040000C4803F097FB384601F0DCFBB54603E053
:1060500043F6982001F020F82437BD46F0BD00BF7C
:106060007C0400207F890108D0050020D80500208D
:10607000888901081C050020918901089A89010876
:10608000658901084489010857890108C005002075
:10609000A38901082DE9F743384C0025384E04F553
:1060A000B6772B46009529462A46384601F050FA25
:1060B00004F5A2783246384632490DF097FC324F4B
:1060C0004046324901F0E0FB4046DFF8D4803246DA
:1060D00039460DF08BFC4146204601F0D5FB04F516
:1060E000AE793246394620460DF080FC414648469E
:1060F00001F0CAFB3946324648460DF077FC2A4685
:1061000004F120000321012303F044FC2A4604F19A
:1061100040000221012303F03DFC2A4604F1600007
:106120000421012303F036FC01212A460B4604F129
:10613000100704F1800003F02DFC02232A463846A4
:10614000042103F093FC04F5BA7532461049384631
:106150000DF04CFC284601F069FD324628460D49F9
:106160000DF044FC009504F1A0000B4940F25B7275
:106170000A4B03F057F903B0BDE8F0837C0400201C
:10618000F0070020195A000805780008AC890108BA
:10619000959A0008255A000800000020595A000866
:1061A000C1890108013101EB420291420BD0030F7A
:1061B000092B94BF3033373301F8013C0023000131
:1061C00001F8023BF1E770471F4B10B51A88032A0C
:1061D00004D804200146188007F0C8FA4FF0006088
:1061E0004FF4A04107F0B8FA0124184B1848214693
:1061F0001C7007F0CDFC06F003FB05F0E9FF21461B
:10620000402007F07DFD6FF07F4006F053F9E72056
:1062100006F0CCF90F4B1C7006F024F87D2007F037
:1062200093FD18B10C4B1C7007F0A2FD40F6B8307E
:1062300006F072F806F0D6FD07F050F8074A012381
:106240001370074A137010BDE0170020BC17002020
:1062500000043000D4160020B02000205C1700207D
:106260005217002038B52F4C2388042B04D8052161
:106270000420218007F07AFA2B4D2B7813B12B489C
:1062800002F04CF92B7853B12388052B05D8254B08
:1062900006210420198007F069FA02F09BFA2B7896
:1062A00063B1234B1B784BB9224B1B7833B1224B84
:1062B0001B781BB9214B1B78002BE3D0204B1B789C
:1062C000002BDFD11F4B1B78002BDBD11B4B1B7826
:1062D000012B0FD01C4B6BB12388062B05D8114B1B
:1062E00007210420198007F041FAFFF753FC134BF4
:1062F00001221A70154B002BC4D02388072B05D818
:10630000084B08210420198007F030FAFFF786FDBA
:106310002388082BB6D8034B09210420198007F0E5
:1063200025FAAFE7E01700205C170020296B000872
:106330001117002052170020D216002088060020D6
:10634000D3160020B0200020955B00081D5E0008D9
:10635000F8B5524B1A6812B11A68013A1A60504BDC
:10636000504D1B783BB1504B1B78002B28D04F4B26
:10637000002B47D124E04E4C2368264613B12368F6
:10638000013B0FE04B4B1B78D3B94B4B1B78BBB990
:106390004A4B1B78A3B94A4F3B782BB1E72006F054
:1063A00079F9142323600BE02B78002B2DD1E72003
:1063B00006F02AF9434B1B78002B34D0322333608C
:1063C0002B7833B1404C23781BB92EE05A68013248
:1063D0005A603E4B1A68B2F57A7F0FD300221A60DA
:1063E00007F02EFC3A4B4FF6FF711A888A4254D0C0
:1063F00019800420BDE8F84007F0B8B91A680132E6
:106400001A60F8BD00F0F4FBDAE7324B1B78002B82
:10641000CDD04FF6FF7006F04DF8E72006F0C6F835
:1064200001233B70CCE76423C9E7234B1B788BB176
:10643000294B47F22F5259689142C7D9BFF34F8F6A
:10644000264A274BD16801F4E0610B43D360BFF3C8
:106450004F8FFEE7174B1B7803F0FF0533B9284633
:1064600006F02EFA40F6B73398420DD8002006F019
:1064700027FA41F657339842ABD9002006F028FAA4
:10648000184B01221A70A4E7284606F021FA237857
:10649000002B9ED101F092FE9BE7F8BDB8200020B2
:1064A0009C1700205C170020240A0020F16B0008D4
:1064B000B420002005170020D3160020D516002098
:1064C000D4160020D116002011170020BC20002077
:1064D000E0170020D21600208806002000ED00E022
:1064E0000400FA050817002008B5094B186006F0EB
:1064F0001FFC002006F068FC064805F08DFE06F043
:106500002FFC06F04DFCBDE8084008F017BB00BFAB
:10651000BC020020A0860100074B1B68052B08D198
:10652000064B1A7A012A04D1987A1B7BC01AC0B292
:1065300070470020704700BFE41700208806002045
:106540000D4B10B51B68052B13D10C4C237A012B76
:106550000FD16289A389D31A012B04D10023032010
:10656000237208F042FCA3895A1CA2811C44A07B20
:1065700010BD4FF0FF3010BDE4170020880600204A
:1065800008B50C4B1B68052B12D10B4B1A6D9918D3
:106590000132B2F5807F08BF002281F854001A65ED
:1065A00006F0AAFA20B16420BDE8084005F034BE28
:1065B00008BD00BFE417002088060020F8B5234B73
:1065C00093F85421012A3FD0D3F85821196DB2F520
:1065D000807F04BF0022C3F85821D3F858411B4ADA
:1065E0008C4203D1002382F85431F8BD8CBFC4F52E
:1065F0008071C4EB0101C2F85C11D3F85C61134DEA
:10660000402EA2B207D94034403EC5F85841C5F8E3
:106610005C61402706E034440021B7B2C5F8584118
:10662000C5F85C110A4801241044C0213A4683F899
:10663000544108F055FB2046394608F059FC2046E5
:10664000BDE8F84008F0BEBBF8BD00BF88060020DA
:10665000DC060020094B10B593E8140008331B68D2
:10666000D0180AD006490822FFF79CFD20460549AC
:106670000422BDE81040FFF795BD10BDE8F7FF1FED
:10668000690200207902002013B5084C0021009116
:106690000A460B46204600F05BFF0549054A2046A6
:1066A00002B0BDE810400DF0A1B900BFE80700201E
:1066B000195A0008F007002038B504460D46AC42D0
:1066C00003D254F8043B9847F9E738BD08B50748AA
:1066D0000749FFF7F1FF07480749FFF7EDFFBDE85E
:1066E000084006480649FFF7E7BF00BF1C8F0108B6
:1066F0001C8F01081C8F0108848F0108848F0108FA
:10670000848F01080DF0CAB908B5072006F00AFF0A
:10671000FEE70000074A08B5136818441060064AEF
:10672000904204D9082006F0FDFE0DF08DF91846C0
:1067300008BD00BF04000020004800204FF0FF30DB
:1067400070470120704708B50C2006F0EBFEFEE70D
:10675000014B1868704700BFF4070020064B024643
:10676000582000FB013101F1080303CB1060516098
:1067700018689060704700BFF4070020014BD3F801
:1067800064017047F4070020064B0246142000FB0A
:10679000013101F5B67303CB106051601868906049
:1067A000704700BFF407002038B50546064C28B1F5
:1067B00005F022FF012384F8303238BD05F0CAFE0F
:1067C00084F8305238BD00BFF40700200E4B2DE98D
:1067D000F041D3F8647180460024BC4211DA1425DC
:1067E0006543094E414606F5B67028440C220DF06B
:1067F00019FB20B93544D5F86801BDE8F0810134B2
:10680000EBE70020BDE8F081F4070020044B0122F3
:106810001A70044B00224FF4C0201A6006F058BBD7
:10682000D31600208C060020034A00231370034A6D
:10683000136006F0ABBB00BFD31600208C0600200F
:10684000024B00221A6006F06BBB00BF8C060020D2
:106850002DE9F04788B0804668460D4601F014F8EF
:106860001E4B0024D3F800A054452DDA55B358260A
:1068700066431A4F414607F1080030440C2207F1E5
:1068800004090DF0CFFAE8B928460DF0C3FA06F175
:106890001003402834BF02464022294609EB03007A
:1068A0000DF021F93E44012386F85830694604A8CA
:1068B000746801F00BF804A8A047044604A800F08F
:1068C000A1FF03E00134CFE74FF0FF34684600F04A
:1068D00099FF204608B0BDE8F08700BFF40700200C
:1068E000014B93F831027047F407002073B5002B79
:1068F0000CBF6523452306460D46144600933146DA
:106900002A462346024808F0ABFE02B070BD00BF25
:10691000280A002010B5064C206803F0A3FF236866
:10692000013303D0431E5842584110BD012010BD11
:106930000800002038B50B4B05461B780C466BB998
:10694000094B1B7853B9FFF7E5FF034630B9074AF7
:1069500029461068224604F03BFF38BD4FF0FF3057
:1069600038BD00BF101700201117002008000020BC
:106970002DE9F041264B86B01B7880460F46002B50
:1069800041D1244B1B78002B3DD1FFF7C3FF0446B8
:10699000002838D1204D8DF80C008DF80D008DF8B1
:1069A0000E008DF80F00286806AA460902EB86063D
:1069B000012100F01F02914056F80C2C01300A43CF
:1069C00046F80C2C41F28832059204AA009203A9E1
:1069D00022462346049404F0DDFD002815DD2B68D3
:1069E00006AA590902EB810151F80C5C03F01F0261
:1069F000154115F0010008D0184641463A46234695
:106A000004F068FE01E04FF0FF3006B0BDE8F08111
:106A1000101700201117002008000020014B002251
:106A20001A7070475217002030B51F48ADF57B7DB6
:106A300008F0C7FA002834D11C4B17A805931C4B4B
:106A400061AD06931B4B049007931B4B0EAC089350
:106A50001A4B039509931A4B0A931A4B0B931A4B33
:106A60000C931A4B0D931A4B0E931A4B0F931A4B10
:106A700010931A4B11931A4B12931A4B13931A4BF0
:106A800014931A4B15931A4B169306F0C5FA284621
:106A900006F0C8FA00940448164903AA05AB08F0AA
:106AA00097FA0DF57B7D30BD280A00203569000876
:106AB000716900080D6800082968000855D00008B1
:106AC00041680008A967000875700008AD7D0008DE
:106AD000516700085D670008516800087D6700087D
:106AE00089670008FD6D0008CD67000831D00008F7
:106AF00045D00008E8F7FF1F014809F0E7B900BFDB
:106B0000280A002008B5FFF7F7FF28B9034B1870D3
:106B1000034B1870034B187008BD00BFD31600203C
:106B2000D2160020D116002030B502208DB00146CB
:106B3000112204F071FC051E28DB07A8144908F097
:106B400097FB0223ADF80C3016238DF80E3033235B
:106B50008DF80F30E0238DF8103000238DF81130C0
:106B600001238DF81230BB238DF81330032403ABBF
:106B7000009310230193284607A91322002304F051
:106B800031FE013CF3D1284604F076FC0DB030BD57
:106B9000E8F7FF1F30B5134C87B0FFF745FF2046DD
:106BA00008F012FA204608F036FE0546FFF7BCFF53
:106BB000204608F09FFD03A804F00CF89DF80D2076
:106BC0009DF80C30009204A80821074A0DF0E8F85F
:106BD000064804A93C220123FFF788FE284607B097
:106BE00030BD00BF280A0020CF890108D5890108DF
:106BF00038B5114CD4F8585B2DB1D4F8583B013B53
:106C0000C4F8583B38BDD4F85C3B0C4A52F823001A
:106C100005F078FCE72005F0C9FC6423084AC4F8B5
:106C2000583BD4F85C3B526801339342C4F85C3B58
:106C3000A8BFC4F85C5B38BDF4070020885E01087B
:106C4000080000207FB502200121062204F0E4FBA9
:106C5000041E24DB0223ADF8003000238DF802303F
:106C600035238DF803304FF4FA5008238DF80430A3
:106C70008DF805308DF806308DF8073001F046FCB0
:106C8000694610220546204604F056FC0646284672
:106C900001F03CFC204604F0EFFB304601E04FF0F1
:106CA000FF3004B070BD000010B5064C206800280D
:106CB00005DB04F0E1FB4FF0FF33236010BD002043
:106CC00010BD00BF08000020F0B5A7B0FFF7ECFF33
:106CD00002200121062204F09FFB324F0028386079
:106CE00050DB314D0223A5F8603B162385F8623B4B
:106CF00005A8332385F8633B06F05AF90023009377
:106D00009DF814303BB1012B17D0284B01AC03F197
:106D1000100E224602E0069B009313E018685968A3
:106D2000264603C6083373453446F7D10FCA06AC6E
:106D300007C424F8023B1B0C23700A24009B0BB9E8
:106D4000013C22D1009B0BB9194B0093009B4FF4DF
:106D5000FA501A0E85F8642B1A0C85F8652B1A0A5E
:106D600085F8673B85F8662B01F0D0FB1149044696
:106D70001022386804F0E0FB0546204601F0C6FB0F
:106D800028460CE04FF0FF3009E006A87E210DF008
:106D900071F86A4681B206A804F094FBCEE727B0EA
:106DA000F0BD00BF08000020F4070020F0890108B2
:106DB00004E5D036541300200F4B2DE9F041D3F8F1
:106DC000647180460024BC4211DA142565430A4EE2
:106DD000414606F5B67028440C220DF023F820B980
:106DE000354495F87801BDE8F0810134EBE74FF0C8
:106DF000FF30BDE8F08100BFF407002008B5FFF7C1
:106E0000DBFF013808289DBF024BC018007F02201D
:106E100008BD00BF885E010804F08EBB37B50B4C7F
:106E2000002104F537650B4600910A46284600F01C
:106E30008FFB28460649074A0CF0D8FD04F50D7073
:106E400003B0BDE8304008F0A7B800BFF407002049
:106E5000195A0008F007002014282DE9F3410446D0
:106E60000E4675D8FF2973D000F054FC18B1A4F178
:106E70000D03022B6CD900F0FFFA08B1012C67D981
:106E800001F01AF918B1A4F11203012B60D91823EB
:106E90006343314DEA18EF58304BB2F804809F42FB
:106EA00001D1042003E02E4B9F4203D10820012191
:106EB00006F032FFADF80480062E45D8DFE806F074
:106EC000040F171F27313C0010238DF807300323D0
:106ED0008DF80630182303FB0454002333E0042309
:106EE0008DF80730182303FB045401232BE04823BB
:106EF0008DF80730182303FB0454022323E02823D2
:106F00008DF80730182303FB045403231BE01823D8
:106F100003228DF8073003FB04548DF80620042368
:106F200011E01C238DF8073003238DF80630182359
:106F300003FB0454052306E000238DF807301823D3
:106F400003FB04540623A373384601A906F0C2FDCF
:106F500002B0BDE8F08100BF100000200008014031
:106F6000000C0140142870B504460E463CD81F4D55
:106F7000182303FB00539B7B5A1E022A34D9062B8D
:106F800032D0FF2B30D000F0C5FB20B1A4F10D03AF
:106F9000022B00D870BD00F06FFA10B1012C00D8A0
:106FA00070BD01F089F820B1A4F11203012B00D8C3
:106FB00070BD182303FB04539B7B042B03D1204695
:106FC0000021FFF749FF012E06D118235C432A193F
:106FD0002B5992881A6170BD36B918235C432A195F
:106FE0002B5992885A6170BD70BD00BF10000020FF
:106FF000142838B5044615D81D4D182303FB00533B
:107000009B7BFF2B0ED0043B012B0BD900F082FBA6
:1070100018B1A4F10D03022B04D900F02DFA18B118
:10702000012C01D8002038BD01F046F818B1A4F1B8
:107030001203012BF6D9182303FB04539B7B062B69
:1070400007D10B4B93F8F811FF29EBD02046FFF73F
:1070500003FF182254432544054BAA7BA9881859DD
:1070600012B906F08BFD38BD06F082FD38BD00BFB9
:107070001000002006F028B8044B5868044B1A682A
:10708000044BB2FBF3F3B0FBF3F07047001000E0E9
:10709000B003002040420F0030B54FF47A7385B042
:1070A0001C4C0093236805460344236006F00CF84B
:1070B000019006F0C5FD06F007F80290029A019BC8
:1070C000D31A0393039B002B03DA019B029A134408
:1070D0000393039BAB421AD20F4B1B78002BE8D0D3
:1070E0000E4B1B78002BE4D1039A009B9A4203D2EB
:1070F0002368B3F57A7FDCD3039B03F57A7300939F
:1071000001F068FB064B1B78002BF9D1D1E705B0E5
:1071100030BD00BF0C1700205C17002011170020A5
:10712000D316002013B5084C002100910A460B46E7
:10713000204600F00DFA0549054A204602B0BDE898
:1071400010400CF053BC00BF98130020195A0008DF
:10715000F007002038B5184B05461C8803F58063FE
:107160001B88A4B29BB22BB94EF6EE62A21A18BFCE
:10717000012205E0F4B94EF6EE629B1A5A425A41DA
:1071800092020E4B02F1006404F5804413449C42C9
:107190000ED22268013209D1204606F07FFC042875
:1071A00009D1A01C294606F079FC38BD0434EEE76D
:1071B000802038BDAB2038BD00400008FE430008E9
:1071C00008B5084806F04CFC04280AD105480021FF
:1071D00006F064FC042804D1BDE80840024806F02B
:1071E0003FBC08BD0040000800440008104B10B52B
:1071F0001C8803F580631B88A4B29BB21CB10BB141
:10720000AB2010BD01240B4BA40223440A4A2244A4
:1072100093420AD91A8892B2824204D133F8023CCE
:1072200000200B8010BD043BF0E7012010BD00BF23
:1072300000400008FE43000802400008F8B5444E34
:1072400006F0CEFB434D34884EF6EE61A4B22B8897
:107250008C429BB24FF6FF7210D0944202D0002CA9
:1072600073D142E00BB930466CE08B426DD13046B1
:1072700006F0F6FB04286AD1284632E04BBB1C46D8
:107280001646354B354A1B8832F814509BB2AB4238
:1072900008BFA6B233B29C4203D10134642CF0D1B2
:1072A0000FE02E4F284607F1C801FFF79FFF012886
:1072B000F3D02846B7F8C810FFF74CFF0428ECD0ED
:1072C000F8BD2348002106F0E9FB04283FD12148FE
:1072D00038E0934239D1284606F0C2FB042836D163
:1072E0003046002106F0DAFBF8BD73B3934201D1BA
:1072F000284627E016461A4B184A1B8832F81450C5
:107300009BB2AB4208BFA6B233B29C4203D1013458
:10731000642CF0D10FE0114F284607F1C801FFF7A8
:1073200065FF0128F3D02846B7F8C810FFF712FF11
:107330000428ECD0F8BD0748002106F0AFFB042874
:1073400005D1034806F08CFBF8BDFFF739FFF8BD07
:10735000004000080044000806400008A013002078
:107360000644000810B50446FFF768FF0023044AEE
:1073700022F813300133642BF9D1204610BD00BF31
:10738000A01300200148FFF7EDBF00BF6A140020E2
:10739000024B18785B78C01A704700BF6C1400204D
:1073A000064B5A781978914204D999180132887895
:1073B0005A7070474FF0FF30704700BF6C140020C8
:1073C000044B5A781978914286BF9B1898784FF0F1
:1073D000FF3070476C14002070470000014B0360C1
:1073E000704700BFF85E010810B5034B0446036008
:1073F000FFF788F9204610BDF85E0108F8B5094B83
:10740000054693F82230164653B10C468F18BC42FD
:1074100006D02B6828469B6814F8011B9847F6E7AE
:107420003046F8BD6C14002010B50C4B012293F8C7
:1074300022408CB193F823401F2C02D942600020D7
:1074400010BD93F824001C1884F82510411CC9B203
:1074500083F8241083F82310104610BD6C1400200C
:10746000002242604FF47A728260014A02607047E3
:10747000B85E010870477047014B93F85900704798
:107480006C14002073B50E4C002104F164050D4E00
:107490000B4600910A46284600F05AF86C343246F2
:1074A000094928460CF0A2FA2046FFF7D9FF074900
:1074B0002046324602B0BDE870400CF097BA00BFDB
:1074C0006C140020F0070020195A0008DD73000832
:1074D00008B5034B53F8203003B1984708BD00BFEF
:1074E000E814002013B5084C002100910A460B4611
:1074F000204600F02DF80549054A204602B0BDE8B7
:1075000010400CF073BA00BF28150020195A00086B
:10751000F00700202DE9F041002407460E462546DD
:107520003B1919790A22304600F0C2F82E21804614
:10753000304600F08EF801344044032C0544EFD16E
:107540003046F9790A2200F0B3F82844BDE8F0810A
:1075500030B58371034D9DF80C30056001714271A7
:10756000C37130BDE05E0108024A02600A684260F1
:10757000704700BFE05E01080548064B06490360FE
:10758000064A0023037143718371C3710CF02EBA54
:1075900030150020E05E0108195A0008F0070020AD
:1075A000054B1B7803F0FF0023B1044B1878003023
:1075B00018BF0120704700BF04170020D01600201C
:1075C00013B5084C002100910A460B462046FFF7F0
:1075D000BFFF0549054A204602B0BDE810400CF047
:1075E00005BA00BF38150020195A0008F00700201E
:1075F000014B0360704700BFF85E0108F8B506460E
:107600000C468F180025BC4207D0336830469B6873
:1076100014F8011B98470544F5E72846F8BD00001B
:1076200010B5034B04460360FFF76CF8204610BD0D
:10763000F85E010838B505460C46084641B10CF025
:10764000E9FB2B680246DB6828462146984738BD8F
:1076500038BD08B503689B68984708BD30B500235E
:107660008BB08DF82430012A98BF0A220DF1230433
:10767000B1FBF2F303FB1211CDB2092D94BF3035EB
:107680003735EDB2214604F801590BB11946EFE741
:10769000FFF7D0FF0BB030BD10B522B90268C9B2F8
:1076A0009268904710BDD2B2BDE81040FFF7D6BF38
:1076B000FFF7F2BF13B5084C002100910A460B46B4
:1076C0002046FFF745FF0549054A204602B0BDE8C0
:1076D00010400CF08BB900BF48150020195A000863
:1076E000F007002013B5084C002100910A460B4614
:1076F0002046FFF72DFF0549054A204602B0BDE8A8
:1077000010400CF073B900BF50150020195A000842
:10771000F0070020014B587D704700BF581500202E
:107720007047000013B5084C002100910A460B4633
:107730002046FFF70DFF0549054A204602B0BDE887
:1077400010400CF053B900BF70150020195A000802
:10775000F007002013B5084C002100910A460B46A3
:107760002046FFF7F5FE0549054A204602B0BDE870
:1077700010400CF03BB900BF7C150020195A0008DE
:10778000F007002010B504460CF044FB01382346F6
:107790002044834206D21A78017803F8011B00F8CE
:1077A0000129F6E710BD38B5931E222B0C461BD8D5
:1077B000A8B10B46B0FBF2F102FB1100C5B20928DB
:1077C00003F8015BD4BF3035573503F8015C09B1CC
:1077D0000846EFE719702046FFF7D4FF02E0302398
:1077E0000B704870204638BD002038BD031E10B510
:1077F0000C4603DA2D2001F8010B5842FFF7D3FFA6
:10780000204610BD10B5044600680CF047F920462C
:1078100010BD10B50446006808B10CF03FF9002314
:107820002360A360636010BD38B504460D46006850
:1078300001310CF057FA10B184E82100012038BD65
:10784000036810B5044613B143688B4207D2204643
:10785000FFF7EAFF20B1A3680BB92268137001207B
:1078600010BD70B50E46114604461546FFF7E8FFF9
:1078700018B92046FFF7CDFF04E0A5602068314627
:107880000CF0C0FA204670BD38B5002304460360F2
:107890004360836003730D4639B108460CF0BAFAB1
:1078A000294602462046FFF7DCFF204638BD8842C5
:1078B00010B50B46044607D0096819B19A68FFF75E
:1078C000D0FF01E0FFF7A5FF204610BD10B5002353
:1078D00004460360436083600373FFF7E8FF2046BC
:1078E00010BD70B5044685680E4609B9002070BD0C
:1078F00062B115442946FFF7A3FF0028F6D020689F
:10790000A368314618440CF07DFAA560012070BDD3
:1079100038B504460D4641B108460CF07BFA2946BD
:1079200002462046FFF7DDFF10B92046FFF771FF42
:10793000204638BD03680A680BB15AB905E022B188
:10794000896811B11078404270473BB1806830B10E
:107950001878704718461146FDF7DABB184670478D
:1079600008B582688B689A4206D1FFF7E3FFD0F131
:10797000010038BF002008BD002008BD38B50C4606
:107980009AB191B181688B4202D30023237038BD34
:10799000C91A551E8D4228BF0D4601682A46194452
:1079A00020460CF055FA0023635538BD13B5026824
:1079B00002AB03F8011DD46819460122A04702B0AA
:1079C00010BD10B5B0F89620B0F8943004469A4235
:1079D00007D0B4F894305A1CA4F894201C44207D9D
:1079E00010BD03681B6998470028F2D14FF0FF30A3
:1079F00010BD10B5B0F89620B0F8943004469A4205
:107A000004D0B4F894301C44207D10BD03681B6979
:107A100098470028F5D14FF0FF3010BD0023A0F8A3
:107A20009430A0F89630704730B5B0F8963087B0F3
:107A3000044633B1B0F894209A4202D10368DB695E
:107A40009847FFF7ADFD18B32069082820D0B4F897
:107A500096307F2B1CD8430906AA02EB8303012131
:107A600000F01F0291400025039553F80C2C0130C3
:107A70000A4343F80C2C41F28833059304AB00937E
:107A800003A92A462B46049503F084FDA84206DC90
:107A9000B4F89600B4F89430C01A07B030BD20692D
:107AA00006AB420903EB820252F80C2C00F01F03D4
:107AB00042FA03F3DB07EBD5B4F896202B46A11866
:107AC0001431C2F1800203F005FE0028E0DDB4F8B5
:107AD00096300BB9A4F894300344A4F89630D7E755
:107AE000F8B51746B0F89430B0F8962004469A429C
:107AF0000E4606D103681B69984710B94FF0FF3551
:107B000012E0B4F89430B4F89650E118ED1ABD4282
:107B100028BF3D46304614312A460BF0E4FFB4F846
:107B200094302B44A4F894302846F8BD10B5044690
:107B30000069082801D003F09FFC0823236110BDD1
:107B40007FB504460D461646FFF72AFD002836D0BD
:107B500002200121062203F05FFC002820612BDBBC
:107B600023682046DB6998470223ADF80030330ACA
:107B70008DF802302B794FF4FA508DF804306B7980
:107B80008DF803608DF80530AB798DF80630EB7910
:107B90008DF8073000F0BAFC6946054610222069CE
:107BA000FFF73AF90646284600F0B0FC002E05DA49
:107BB00023682046DB6A9847002000E0012004B0DB
:107BC00070BD00002DE9F04188B005460E46904694
:107BD000FFF7E6FC002718B308AC304644F8147DE4
:107BE0000CF018F9224681B2304603F06BFCB84223
:107BF00015DD039B04A8DAB20092190EC3F3074205
:107C0000C3F30723FFF7A4FC2B6828461C6A064B26
:107C100006A90693059B42460793A04700E0384615
:107C200008B0BDE8F08100BFE05E01084FF47A7152
:107C30008160054900220160082142600161A0F8CD
:107C40009420A0F896207047105F0108036910B5D2
:107C5000082B044601D1002010BDFFF7A1FC00282D
:107C6000F9D0206902F0FEFDD0F1010038BF0020FC
:107C700010BD70B504460E461546FFF7E7FF30B15C
:107C8000206931462A46002303F0A2FD70BD4FF063
:107C9000FF3070BD70B50446FFF7D8FF012819D03A
:107CA000B4F89620B4F894309A4212D1206908288A
:107CB00003D002F0D7FD012801D0002070BD236859
:107CC00020461B69984720B923682046DB6A9847FD
:107CD000F3E7012070BD08B5FFF7B8FF003018BF0B
:107CE000012008BD13B5084C002100910A460B463F
:107CF0002046FFF72DFC0549054A204602B0BDE8A5
:107D000010400BF073BE00BF84150020195A000804
:107D1000F007002013B5084C002100910A460B46DD
:107D20002046FFF715FC0549054A204602B0BDE88C
:107D300010400BF05BBE00BF8C150020195A0008E4
:107D4000F007002038B5184C94F92C305BB394F848
:107D50002D3043B306F034F894F82C2094F82D50CD
:107D600051B2002995FBF1F106DD01290BDC013A46
:107D700084F82C20002307E0013104DB013284F871
:107D80002C20022300E0012394F82D20013A84F8EE
:107D90002D20C41806F046F8204606F023F8BDE86A
:107DA000384006F03FB838BD9415002010B50446A1
:107DB00006F006F8001B00F17F02FE2A08D906F043
:107DC00031F8204606F00EF8BDE8104006F02AB85B
:107DD000054A80EAE073A3EBE0735B0082F82C00B5
:107DE00082F82D3010BD00BF9415002013B5084C4B
:107DF000002100910A460B462046FFF7A9FB0549E2
:107E0000054A204602B0BDE810400BF0EFBD00BFB0
:107E1000C4150020195A0008F007002013B5084CBB
:107E2000002100910A460B462046FFF791FB0549C9
:107E3000054A204602B0BDE810400BF0D7BD00BF98
:107E4000D0150020195A0008F007002013B5084C7F
:107E5000002100910A460B462046FFF779FB0549B1
:107E6000054A204602B0BDE810400BF0BFBD00BF80
:107E7000D8150020195A0008F0070020014B0360B4
:107E8000704700BFF85E0108426D836DD01A00F0A4
:107E90003F007047426D836D9A421DBF836DC018CD
:107EA000007D4FF0FF307047426D836D9A4209D0DC
:107EB000836D826D03441B7D013202F03F028265B7
:107EC000184670474FF0FF307047000010B5034B65
:107ED00004460360FEF716FC204610BDF85E01085C
:107EE00010B50446D4F89C20D4F8A0309A42F9D1B9
:107EF000237C13B90023237410BDD4F8A43040218F
:107F0000186806F0DCF90028F4D1F1E7D0F8A430C5
:107F100070B504460E46186840F2277106F0D5F990
:107F200028B9D4F89C20D4F8A0309A4215D1D4F8BE
:107F30009C50013505F03F05D4F8A0309D42D4F89F
:107F4000A43013D0EFF31082D20742D5D4F89C109E
:107F5000D4F8A020914209D13BE0D4F8A43040F2FB
:107F600027711868012206F08AF9E0E7186840F2E4
:107F7000277106F0AAF90028DED0D4F8A4308021B9
:107F8000186806F09CF90028D6D0D4F8A43040F246
:107F900027711868002206F072F9D4F8A430186826
:107FA000D4F8A0305A1C2344C4F8A02093F85C10E5
:107FB00006F07DF9D4F8A03040F2277103F03F03BA
:107FC000C4F8A030D4F8A4300122186806F057F99C
:107FD000B2E7D4F89C2040F22771224482F85C601A
:107FE000C4F89C500125186825742A4606F047F904
:107FF000284670BD10B540F225510446006806F0D1
:1080000064F970B1206806F056F9E369C0B21A6CE1
:10801000596C013202F03F028A4202D0196C585466
:108020001A64206840F2277106F04FF9B8B1A369CD
:108030002068196C5A6C914206D1BDE8104040F29C
:108040002771002206F01BB95A6C511C5964995CC7
:1080500006F02DF9A3695A6C02F03F025A6410BD74
:10806000F8B54FF47A7383600C4B04460025036027
:108070004560C0F8A41004F15C07482614308F61F5
:108080003246C86129460BF052FD38462946324631
:108090000BF04DFD25742046F8BD00BF505F010870
:1080A0000148FFF7A7BF00BF0C0200200148FFF7FF
:1080B000A1BF00BF2C020020014B187C704700BFFD
:1080C000E015002073B50E4C002104F114050D4E8F
:1080D0000B4600910A462846FFF73AFA1C3432460E
:1080E000284609490BF082FC20460849FFF7B8FFF3
:1080F00007492046324602B0BDE870400BF076BC1E
:10810000E0150020F0070020195A00080C0200209A
:108110007D7E000870474FF0FF307047014B0360D1
:10812000704700BFF85E010810B5034B04460360BA
:10813000FEF7E8FA204610BDF85E0108FEF700BA27
:1081400008B5FEF7E9F908BD08B50846FEF718FAC4
:10815000012008BD002242604FF47A728260014A19
:1081600002607047785F01080846FEF7BDB900005D
:1081700037B50D4C00210D4D0B4600910A462046A7
:10818000FFF7E6F92A460A49204608340BF02EFC90
:108190002046FFF7DFFF074920462A4603B0BDE827
:1081A00030400BF023BC00BFA4160020F0070020D5
:1081B000195A00081D81000870470000014B012278
:1081C0001A70704705170020084B1B7803F0FF005A
:1081D00053B1074B1B7833B9064B1878D0F1010027
:1081E00038BF002070470020704700BF05170020EF
:1081F0004D0200204C0200202DE9F0431446324A83
:1082000089B012781D4681468846109B002A58D0B6
:1082100022782AB1032B4AD8DFE803F0020E39395D
:108220000020012300930190029003900490059098
:1082300049464246034636E0244B1B7803F0FF06CE
:10824000D3B920460BF0E6FD274645088DF81E60A1
:10825000AE4207F102070FD017F8023C07A88DF8CD
:108260001C3017F8013C002110228DF81D300BF056
:1082700017FFA0550136EBE7002301208DE8210010
:108280000293039304940593494642460BE0012070
:1082900018211E2202238DE80F0004940595032067
:1082A00049464246002303F0D5FB094B1870084AA3
:1082B000084B12780E2001321A700121002202F0C0
:1082C00057FC09B0BDE8F083041700204D020020E0
:1082D0005D170020F0160020024B1878003018BF00
:1082E00001207047F016002008B5FF2003F098FC2D
:1082F00018B900F0F1F8012008BD002008BD000009
:1083000037B50B4C00210B4D0B4600910A46204619
:10831000FFF71EF92A46204607490BF067FB07497D
:1083200004F108002A4603B0BDE830400BF05EBB04
:10833000BC160020F0070020195A0008B981000877
:1083400000230360184670470023036018467047F7
:1083500000230360184670470A4BF7B51646012202
:108360000C461A7005460BF055FD074620460BF0EB
:1083700051FD00960346394628462246FFF73CFF4A
:1083800003B0F0BD4C020020034610B548F21004C3
:10839000A34208464DD00DDC48F20102934225D09D
:1083A00048F2020293422BD0992B65D1334B012224
:1083B0009A7310BD48F28004A3420FD0B3F5084F62
:1083C0004AD048F24000834256D12C4C04F11000B0
:1083D0000BF089FB636A0133636210BD284B0122F5
:1083E0005A70264B1A7000225A7010BD234C01237C
:1083F000A370FEF73FFE00F5EA403030606010BD2C
:108400001E4CA37863B1FEF735FE00F5EA4030302C
:1084100060604FF47F4004F04DF8E72004F0C6F8A8
:108420000023A37023726372A372E37223736373D6
:1084300010BD0A7D114B62B95A604FF47F40012292
:108440001A721A7304F036F8BDE81040E72004F001
:10845000ADB800221A7210BD002101F0E6FD012125
:10846000044601F029FE074B1B689C4204D1034BD4
:108470000022DA729A725A7210BD00BFC81600202C
:108480004C020020080000201FB54FF461504FF44B
:1084900061610A2200238DE80F00064B44F620623A
:1084A0001A60684601A902AA03AB02F0DBFA05B024
:1084B0005DF804FB981700201FB50023009301937B
:1084C0000293039301A8694602AA03AB02F090FA53
:1084D00005B05DF804FB000070B500210A4C0E20C9
:1084E00002F092FB102510210E2002F08DFB2A468F
:1084F000204600210BF01BFB294623460E200022BC
:10850000BDE8704002F034BBF0160020024B1A6840
:1085100018601046704700BF981700207FB5344C94
:108520000025A06304F04AFB04F066FA314B324A9E
:108530000093324B32490193324B33480293334B11
:108540000393334B03F098F9642003F05DFE0020A1
:1085500003F0AAF9012348F2042084F83C30257383
:1085600003F07AFB2B4B1A881E46012A30D00E20CE
:1085700010212A4604F1280302F0CCFA102827D152
:1085800063781B4DA3B9FFF7A7FE10B9FFF716FEDE
:108590000EE095F8290058B90146012203F036FA99
:1085A00001212B4603F8291F0E200A4602F0E0FAAB
:1085B0006378A3B90E4B93F83D3083B1164802F0AF
:1085C00009FBFFF779FF04B0BDE87040FFF75CBF1F
:1085D000FFF78AFE0023338004F02CFCD0E74FF431
:1085E0007F4003F067FFE72003F0E0FFE6E700BF0E
:1085F000C8160020F9CA0008498300080DCB0008FE
:108600004183000879CB000889830008A1CB0008CA
:10861000518300089E03002006170020F0B5194D75
:10862000AFB00D20432100222B4602F073FA4328FD
:1086300026D12F781449FE1C7419204602AA02F094
:108640008FFE2B782B445B78102B05D904F110009A
:108650000D4902AA02F084FEE37F1BB1AB5D1F2B24
:1086600003D100E0AB5D013400E020230748394628
:1086700010F8012C1544AA7800922246FFF7BCFDA1
:108680002FB0F0BDFC170020985F0108FD170020F7
:1086900070B5494D494E00249EB0FF2074702C7077
:1086A0003470AC702C72AC736C72AC72EC722C7354
:1086B00003F000FFE72003F079FF21462246204621
:1086C00003F0A4F92B46012103F8294F0E200A4696
:1086D00002F04EFAAB78012B05D1642003F094FD33
:1086E00001F024FEF6E710210C2002F08DFA344848
:1086F00002F042FE334803F0FDFA012003F0DEFAF7
:108700006846314900F054FDFFF75EFD0446D8B1DC
:1087100095F8403073B11A24013C06D0E72003F0ED
:1087200073FF322003F070FDF6E7FFF7DDFD85F8FB
:108730004040E9E7E72003F067FFFA2003F064FD1B
:10874000684600F091FDDFE7E72003F02FFF1F4BA5
:108750000E200121224602F0DDF973780BB1FFF7FC
:108760005DFF002001240146012203F04FF921465C
:108770002246174B0E2085F8294002F0F9F903F044
:10878000C9F8642003F040FD002003F08DF885F85F
:108790003C404FF47F4000242C7303F08BFEE72015
:1087A00003F004FF48F2042003F056FAFFF76CFED2
:1087B00085F83D401EB070BDC81600204C02002058
:1087C000985F01084E02002059830008F01600202F
:1087D000F11600202DE9F341AE4C05F031FA0023EB
:1087E000636494F848304BB994F8493033B96368FE
:1087F0007BB3FEF73FFC636898422AD394F83C3081
:10880000A44D002B40D00026AE706E602E72EE6438
:1088100085F84860012785F83C606E72AE72EE7292
:108820006E7303F077F86FF07F402F7303F042FE12
:10883000E72003F0BBFE642003F0E6FC95F83D3032
:1088400013B3304603F030F885F83C70FFF720FF93
:108850001AE094F83C308F4DB3B96B782BB9FEF722
:1088600009FC00F5EA4030306860002003F01CF895
:10887000012384F83C304FF47F400023237303F03E
:1088800019FEE72003F092FE94F83D30814E13B1BB
:10889000FFF7FEFE05E073781BB1337A03F0FF05A6
:1088A000FBB122787B4B012A13D11A7A012A10D10D
:1088B0009B78012B0DD1032577480BF0ABFA013DD6
:1088C00082B27549012002F099FF15F0FF05F3D13E
:1088D0002570237A6F4DE3B195F84930002B75D0A0
:1088E00017E029462A462846756003F08FF86B4842
:1088F0000BF090FA6A4F804638460BF08BFA0097DF
:108900000190791F032042462B4603F019F8757039
:10891000C7E794F8533023B1624800213A220BF0A4
:1089200006F994F88A205B4B32B95A7A002A59D159
:108930009B7A002B56D1BBE01A7AFAB193F8492002
:10894000E2B95A7A002A5DD018E02B4603F82B2FA3
:108950000E200121032202F00BF900264FF6FF70D2
:10896000267303F0A7FDE72003F020FEFEF7ACF925
:10897000B042484D66DB0123EE646B72637A454D6D
:10898000002B00F09580AB7ABBB9FEF703F9002805
:1089900011D002DA4FF47F0007E0012801D14248EC
:1089A00003E0022803D14FF0FF1003F083FDE7201E
:1089B00003F0FCFD01E00123AB72FDF791FF0228FB
:1089C00076D002B0BDE8F041FEF79CB895F8533080
:1089D000002BA6D1642003F017FC05F1500002F033
:1089E00087F89EE7FEF760F900234FF47F40E372BB
:1089F000A372637203F05EFDE72002B0BDE8F041B0
:108A000003F0D4BD5B7B002BA7D04FF47F0003F0B5
:108A100051FD637B1F4D03F0FF02002B95D0E72033
:108A200003F0C4FD4FF4FA7003F0EEFBE72003F00F
:108A3000CBFD4FF4FA7003F0E7FB6B7B013BDBB23D
:108A40006B73E6E795F8483093BBEB6C0133022B70
:108A5000EB6404BF012385F84830FEF7F3F80028E3
:108A60000ADAE36C0133022BE36403D1094B0122E0
:108A700083F84820022300E003236373637B0E2006
:108A800084F82B300121094B032202F071F80023F6
:108A9000637273E7C81600205102002058020020BC
:108AA0005D020020181700200060FF00F316002070
:108AB00002B0BDE8F08100BF13B5084C0021009161
:108AC0000A460B462046FEF743FD0549054A204667
:108AD00002B0BDE810400AF089BF00BF5417002063
:108AE000195A0008F0070020704708B5012004F06B
:108AF00019FDFEE708B5032004F014FDFEE708B5F4
:108B0000042004F00FFDFEE708B5052004F00AFD7F
:108B1000FEE770477047704708B504F0CDFABDE82E
:108B20000840FDF715BC000008B5024B0BB1AFF3D0
:108B3000008008BD0000000008B5024B0BB1FFF734
:108B4000B5FA08BDAD80000808B5024B0BB1FFF7C0
:108B5000A7FA08BDA180000808B5024B0BB1FEF7CB
:108B600089FC08BD7574000808B5024B0BB1FEF70F
:108B700082FC08BD7774000808B5024B0BB1FEF704
:108B8000CFFD08BD2177000808B5012004F014FFCF
:108B900038B1012004F01EFF024B13B10020FEF794
:108BA00097FC08BDD174000808B5022004F004FF4A
:108BB00038B1022004F00EFF024B13B10120FEF782
:108BC00087FC08BDD174000808B5042004F0F4FE49
:108BD00078B1042004F0FEFE0020064B0146188008
:108BE00003F09AFDBDE8084003481021012205F07A
:108BF000FEBA08BDB8170020002C014008B50820B7
:108C000004F0DAFE38B1082004F0E4FE024B13B1A0
:108C10000320FEF75DFC08BDD174000808B51020E4
:108C200004F0CAFE38B1102004F0D4FE024B13B198
:108C30000420FEF74DFC08BDD174000808B52020C3
:108C400004F0BAFE38B1202004F0C4FE0E4B13B17C
:108C50000520FEF73DFC402004F0AEFE38B1402078
:108C600004F0B8FE084B13B10620FEF731FC80205B
:108C700004F0A2FE38B1802004F0ACFE024B13B128
:108C80000720FEF725FC08BDD174000808B54FF495
:108C9000005004F091FE40B14FF4005004F09AFEF1
:108CA000174B13B10D20FEF713FC4FF4804004F076
:108CB00083FE40B14FF4804004F08CFE104B13B1A2
:108CC0000E20FEF705FC4FF4004004F075FE40B1A5
:108CD0004FF4004004F07EFE094B13B10F20FEF765
:108CE000F7FB4FF4006004F067FE38B14FF400600A
:108CF00004F070FEBDE8084003F006BA08BD00BFEE
:108D0000D174000808B50F48102105F0A9FAC0B1C8
:108D10000C48102105F0AFFA002003F0C1FD28B97E
:108D2000094B1A880A3292B21A8008BD05481021F0
:108D3000002205F05CFABDE808400020012103F0A4
:108D4000EBBC08BD002C0140B817002008B5024B51
:108D50001B6803B1984708BD6017002008B5024B97
:108D60005B6803B1984708BD6017002008B5024B47
:108D70009B6803B1984708BD6017002008B5012023
:108D800005F066F850B1012005F072F8044B0BB104
:108D9000FEF7D8FFBDE8084005F044B808BD00BFA5
:108DA000457D000808B5022005F052F8B0B10C4B23
:108DB00000224FF400301A7004F00CFE012004F081
:108DC00069FF10B1012004F06FFF05F02BF80220BD
:108DD00005F04EF8BDE8084005F024B808BD00BF16
:108DE0001117002003F006B900F064B838B5144933
:108DF0000B78012B23D1134A13680BB90B7038BDC4
:108E0000114C402B206881B205D94030403B206096
:108E10001360402504E09DB20344236000231360E7
:108E20000A482A460844C02105F05AFF0120294675
:108E300006F05EF8BDE83840012005F0C3BF38BD3C
:108E4000DC070020E4070020E0070020DC0600200B
:108E500008B5094B01221A70084B002203201A8022
:108E600006F074F8064B024618804FF488710548E6
:108E7000BDE8084005F04CBF900600209406002095
:108E80009206002096060020084B1B68052B0BD18C
:108E9000074B1A68052A02F1010101D019607047D9
:108EA00000221A60FDF78ABB704700BFE41700205C
:108EB0006C17002070B52B4D2B4C2B682B4E9BB2A2
:108EC0002380228833881340990508D54FF6FF5335
:108ED0002B60A3780133DBB2A370FFF7D5FF2288A4
:108EE000338813401A0401D505F044FE22883388E4
:108EF00013405B0505D54FF6FF332B601C4B5B68B9
:108F00009847228833881A40900444BF4DF6FF7278
:108F10002A6022881340D90405D54EF6FF732B60D2
:108F2000002004F0BDFA2288338813401A050BD5BF
:108F3000104B1B7813B104F093FA02E0022004F006
:108F4000AFFA4FF2FF732B60228833881340DB05A2
:108F500007D54FF6FF632B600720BDE8704004F093
:108F60009FBA70BD445C004070170020FC200020B8
:108F7000C4020020C4030020034B9B7A13B1034BAF
:108F800005221A60704700BFD8200020E417002097
:108F9000014B04221A607047E4170020034B1A7833
:108FA000202A04BF00221A70704700BF74170020E7
:108FB00070470000212810B508D1114B1B681B78A1
:108FC00003F07F03212B10D0022010BD2028FBD1FD
:108FD0000B4B0C4A1B681B78107003F07F03212B8E
:108FE000094B18BF00230BB9EEE7084B044A0024D5
:108FF00012682046936154829847204610BD00BFF6
:10900000F8200020741700205D90000845900008AB
:10901000074B1B681B7803F07F03212B06D100F060
:10902000DF0002280CBF002002207047022070479A
:10903000F820002021B9022834BF00200220704708
:109040000220704720B9034B08221B681A82704720
:1090500001487047F8200020BC02002020B9034BD3
:1090600008221B681A82704701487047F8200020C8
:10907000BC02002010B5FDF7EDFA054B00241B687B
:109080009C7204F0D5F905F077FF024B1C6010BD0F
:10909000F8200020E4170020334B344A1B68D279B3
:1090A00010B500245A729C72DC72204605F042FE14
:1090B00020464FF4007105F045FE2046102105F0D2
:1090C0004FFE2046402105F0E7FE8021204605F0B6
:1090D000D3FE204605F09CFE254B204693F8341025
:1090E00005F014FF204605F080FE0120214605F022
:1090F00029FE0120C02105F0BFFE0120202105F03E
:109100002FFE0120214605F044FE02204FF4C061ED
:1091100005F018FE02204FF4807105F0ADFE02202C
:10912000214605F036FE0220202105F019FE03201D
:10913000214605F007FE03204FF4887105F0ACFED0
:109140000320402105F0E2FE03204FF4405105F0DA
:1091500020FE0320214605F003FE204605F09EFC7C
:10916000044B01221A6010BDF820002005600108A0
:10917000BC020020E4170020014905F08BBA00BFB3
:10918000F4020020014905F085BA00BFFC0200206E
:10919000054B1B68DB78042B04D8044901EBC301A1
:1091A00005F078BA00207047F82000200403002062
:1091B00038B504460D46FEF7CDFF204625614FF435
:1091C0001651FEF7D1FF204638BD70B506460D4654
:1091D000002428460AF01EFE844208D2295D30464B
:1091E000FEF7B2FF012003F00FF80134F1E770BD84
:1091F0002DE9F04104460E46904600252046FEF734
:109200009FFF0028FADD2046FEF798FF4545C1B2D2
:1092100006D10023337020461249FFF7D6FF15E030
:109220000D29F6D00A29F4D0082901D07F2904D1CC
:10923000002DE3D0771E013D02E0771C317001352F
:109240002046EDB2FEF780FF3E46D7E72046FEF708
:1092500077FF002803DD2046FEF770FFF6E7BDE844
:10926000F08100BFAC8B0108F0B585B00446FEF775
:1092700067FF002840F39B802046FEF75FFFC0B2E7
:10928000772867D104F1140600212122304604F129
:1092900035050AF04CFC4122002128460AF047FC23
:1092A00004F17607002384F87630204641497B702C
:1092B000FFF78BFF204631462022FFF799FF20461B
:1092C0003D49FFF782FF012220463946FFF790FF14
:1092D00094F87630A3F13002032AF0D8312B0BD169
:1092E00020463649FFF771FF20463549FFF76DFFED
:1092F00020463449FFF769FF94F87620B2F1300731
:1093000008D020463049FFF760FF2046294640221A
:10931000FFF76EFF20462D49FFF757FF23693A46B6
:1093200030462946984720462949FFF74EFF2046F8
:109330002849FFF74AFF20462749FFF746FF204606
:109340002649FFF742FF20462549FFF73EFF20460A
:10935000244927E069282AD1234B01AD93E807006F
:1093600085E8070020462149FFF72FFF0026AF5D63
:1093700020463B0903F13001392988BF03F1570129
:1093800007F00F07FEF7E0FE07F13001392988BF2B
:1093900007F1570120460136FEF7D6FE0C2EE6D126
:1093A0001349204605B0BDE8F040FFF70EBF05B0F9
:1093B000F0BD00BF008A0108078A0108348A01084D
:1093C0006A8A0108958A0108DB8A0108E68A010891
:1093D000298B0108498B01087C8B0108AF8B0108A0
:1093E000EE8B01081F8C0108E8F7FF1F358C010880
:1093F000AC8B010813B5084C002100910A460B46BE
:109400002046FEF7A5F80549054A204602B0BDE80A
:1094100010400AF0EBBA00BF78170020195A000874
:10942000F007002030B5039DC0F89430002305609C
:10943000C0F89810A0F8A020C0F89C3030BD10B53E
:109440000446206803681B6998470028F9D0206803
:1094500003685B699847C0B210BD2DE9F843054623
:109460008946FFF7ECFF012628710027B046284601
:10947000FFF7E5FF05EB0803187100F07F0303FB1E
:10948000067708F101040306A4B2BFB24FEAC6167C
:1094900001D5A046EBE7631E89F800300026B3B281
:1094A000BB4212D27F2C0AD82846FFF7C8FF04F12E
:1094B00001081FFA88F82C442071444603E028462E
:1094C000FFF7BDFF00240136E9E72046BDE8F88339
:1094D000F7B507461E46DDB2002405F07F0302A85B
:1094E000ED09204418BF43F08003013400F8043C28
:1094F000E4B2002DF1D1C4F1040302EB030ED15408
:10950000A54206DA01A9695C131B2B445971013588
:10951000F6E73868721C03682244DB687146984796
:109520000546FDF7A7FD0134C7F888002644E8B2D8
:10953000831B5842584103B0F0BD023370B59BB253
:109540000025ACB201354E1916F8016C181980B21D
:109550000EB11654F5E7031B1A44231202F8023C1D
:1095600002F8014C70BD38B50546006858B1036873
:109570001B6B9847044628B928680368DB6A98473C
:10958000204638BD012038BD2DE9F04F85B0044696
:109590008A4690461F46DDF83890FFF7E4FF0646FE
:1095A000002840F0A2802568D4F89C102B6829B1CF
:1095B0005B6A2846B4F8A02098470BE0D4F89810CE
:1095C00001A8D3F820B0FDF7CFFF284601A9B4F8D1
:1095D000A020D847002800F08380464A0123106865
:1095E0005168A4F8843001AB03C3127A01A81A7041
:1095F0000023E218C15C0133092B5172F9D1B9F192
:10960000000F0AD09DF840509DF83C306D0145F0A8
:10961000060545EAC305EDB200E00225B8F1000FEA
:1096200005D017B945F0800501E045F0C0050023DD
:10963000A574E374251D0F2323752046112351467D
:109640002A46FFF77AFF0346B9F1000F0BD04946CF
:109650002A462046FFF771FF119903462A46204605
:10966000FFF76BFF0346B8F1000F0CD020464146D0
:109670002A46FFF762FF03462FB1204639462A46A5
:10968000FFF75BFF0346053B10212A469BB22046AD
:10969000FFF71EFFFDF7EEFCC4F88800C4F88C004D
:1096A000206803681B69984748B9FDF7E3FCD4F8C4
:1096B0008C3043F69822C01A9042F1D910E020462F
:1096C0000DF10301FFF7C9FE042809D1E5793DB981
:1096D000FDF7D0FC0126C4F88C0084F8905005E01A
:1096E00020680368DB6A984700E00026304605B032
:1096F000BDE8F08F5A6001081FB58DE80C009DF899
:10970000183000220293079B03931346FFF73CFF98
:1097100005B05DF804FB2DE9F04704460E4692467D
:1097200099469DF82080FFF71EFF08B3251D31469E
:1097300020462A460523FFF700FF00218FB2461876
:109740004F45B6B201F1010104D21AF807302644A0
:109750003371F3E7B8F1000FA6F1050320462A465E
:1097600014BF312130219BB2BDE8F047FFF7B0BEF6
:10977000BDE8F08773B50546104614460E460AF05C
:1097800049FB002203460092284631462246FFF755
:10979000C2FF02B070BD012A2DE9F04104460F4618
:1097A000154621D8FFF7DFFEF0B1B4F8843001335D
:1097B0009BB203B90123A4F88430B4F88430261D89
:1097C0001A126272A3723946324620460723FFF707
:1097D000B4FE23181D71031F3246204682219BB21E
:1097E000BDE8F041FFF774BE0020BDE8F081002223
:1097F000FFF7D1BF70B504460D46FFF7B4FE50B178
:109800002B126372A5722046221D40210223BDE85F
:109810007040FFF75DBE70BD2DE9F04383B000AF2F
:109820000446FFF7A0FE002800F09880FDF722FC18
:10983000D4F88C300546C21A43F698239A4204D8CD
:10984000D4F88820821A9A4217D994F89030206868
:1098500023B10368DB6A984700207FE0C0222271B1
:1098600063710368211DDB68022298470123C4F855
:109870008850C4F88C5084F89030206803681B69C5
:109880009847002869D02046F91DFFF7E6FD80467D
:10989000002862D02279C4F88C5002F0F002302AFD
:1098A00048D1D4F89430002B57D0FD796E46611919
:1098B0004A798B7903EB02239BB203F10802D208A9
:1098C000A6EBC200854600221FFA82FE9E4507D203
:1098D00001EB020E9EF807E000F802E00132F3E728
:1098E0000022C2542279D4F894C012F0020F05F17C
:1098F0000302C5EB08081A4414D02244517992F8A7
:109900000490C3EB080201EB0929691D19442144A5
:109910001FFA89F90431053AE04720464946FFF726
:1099200069FF05E0A118A8F103020431D21AE0474B
:10993000B54612E0C02A0BD1D0232146237151F83D
:10994000040B0023637103680222DB68984704E07C
:10995000D02A04BF002384F8903001200C37BD4684
:10996000BDE8F08313B5084C002100910A460B4670
:109970002046FDF7EDFD0549054A204602B0BDE849
:1099800010400AF033B800BF80170020195A0008B1
:10999000F007002038B504462175084682F0010121
:1099A000A175E1751421A160FA210025E1604FF451
:1099B0007A716275A56125602571E561216112B931
:1099C0000BB1022100E00321FDF746FA204638BD25
:1099D00038B50446FDF74EFB0546207DFDF708FB34
:1099E000637D003018BF0120A07513B980F001001D
:1099F000A075E27DA37D9A4218BFE561E069A26887
:109A0000281A904207DD22799A4204D0237113B1BB
:109A1000A2690132A26122792AB9E16888420ADD8D
:109A2000A169216006E02269904204DDA2695242E8
:109A300022600022A261E37538BD000013B5084C16
:109A4000002100910A460B462046FDF781FD05499D
:109A5000054A204602B0BDE8104009F0C7BF00BF6C
:109A600088170020195A0008F007002038B5018037
:109A700001EB41018DB204464580037142712846D5
:109A80000AF004F8A06018B100212A460AF04FF845
:109A9000204638BD10B50446806808B109F0FEFFC5
:109AA00060790121FDF7D8F9204610BD10B50021DD
:109AB00004464079FDF7D0F960790021BDE81040F7
:109AC000FDF750BA30B5836885B00446002B00F02E
:109AD0001382FDF7D1FAE368C01A3128F9D972B6BA
:109AE00022796388022AADF80630A36840F05081DD
:109AF000BDF8062092B2002A00F09E804FF40002CA
:109B00000392BDF80620DD1C013A92B2ADF80620A2
:109B10001A78D2B28DF803205A78D2B28DF8042088
:109B20009B78DBB28DF805309DF803109DF804306A
:109B30009DF805201B0243EA0143134302930023CF
:109B40008DF802306179182251433E4B58188088B5
:109B5000595808610299039808422FD0004600BF67
:109B600000BF00BF00BF00BF00BF00BF00BF00BFFD
:109B700000BF00BF00BF00BF00BF00BF00BF00BFED
:109B800000BF00BF00BF00BF00BF00BF00BF00BFDD
:109B900000BF00BF00BF00BF00BF00BF00BF00BFCD
:109BA00000BF00BF00BF00BF00BF00BF00BF6179A2
:109BB0004A4399189B588A885A6130E0004600BF92
:109BC00000BF00BF00BF00BF61794A4399189B588E
:109BD0008A885A61004600BF00BF00BF00BF00BFB7
:109BE00000BF00BF00BF00BF00BF00BF00BF00BF7D
:109BF00000BF00BF00BF00BF00BF00BF00BF00BF6D
:109C000000BF00BF00BF00BF00BF00BF00BF00BF5C
:109C100000BF00BF00BF00BF00BF00BF00BF039B6D
:109C20005B0803939DF802300133DBB2172B8DF8EC
:109C3000023087D92B465BE762B6FDF71DFAE0607C
:109C40005AE100BF10000020617918225143664B91
:109C5000581880885958086102990398084200F002
:109C6000C580004600BF00BF00BF00BF00BF00BFEF
:109C700000BF00BF00BF00BF00BF00BF00BF00BFEC
:109C800000BF00BF00BF00BF00BF00BF00BF00BFDC
:109C900000BF00BF00BF00BF00BF00BF00BF00BFCC
:109CA00000BF00BF00BF00BF00BF00BF00BF00BFBC
:109CB00000BF00BF00BF00BF00BF00BF00BF00BFAC
:109CC00000BF00BF00BF00BF00BF00BF00BF00BF9C
:109CD00000BF00BF00BF00BF00BF00BF00BF00BF8C
:109CE00000BF00BF00BF00BF00BF00BF00BF00BF7C
:109CF00000BF61794A4399189B588A885A61004687
:109D000000BF00BF00BF00BF00BF00BF00BF00BF5B
:109D100000BF00BF00BF00BF00BF00BF00BF00BF4B
:109D200000BF00BF00BF00BF00BF00BF00BF00BF3B
:109D300000BF00BF00BF00BF00BF00BF00BF00BF2B
:109D400000BF00BF00BF00BF00BF00BF00BF00BF1B
:109D500000BF00BF00BF00BF00BF00BF00BF00BF0B
:109D600000BF00BF00BF00BF00BF00BF00BF00BFFB
:109D700000BF00BF00BF039B5B0803939DF8023048
:109D80000133DBB2172B8DF802307FF65DAF2B4627
:109D9000BDF8062092B2002A3FF44EAF4FF4000205
:109DA0000392BDF80620DD1C013A92B2ADF8062000
:109DB0001A78D2B28DF803205A78D2B28DF80420E6
:109DC0009B78DBB28DF805309DF803109DF80430C8
:109DD0009DF805201B0243EA01431343029300232D
:109DE0008DF8023030E700BF10000020004600BFB1
:109DF00000BF00BF00BF00BF00BF00BF00BF00BF6B
:109E000000BF00BF00BF00BF00BF00BF00BF00BF5A
:109E100061794A4399189B588A885A61004600BF65
:109E200000BF00BF00BF00BF00BF00BF00BF00BF3A
:109E300000BF00BF00BF00BF00BF00BF00BF00BF2A
:109E400000BF00BF00BF00BF00BF00BF00BF00BF1A
:109E500000BF00BF00BF00BF00BF00BF00BF00BF0A
:109E600000BF00BF00BF00BF00BF00BF00BF00BFFA
:109E700000BF00BF00BF00BF00BF00BF00BF00BFEA
:109E800000BF00BF00BF00BF00BF00BF00BF00BFDA
:109E900000BF00BF00BF00BF00BF00BF00BF00BFCA
:109EA00000BF00BF00BF00BF00BF00BF00BF00BFBA
:109EB00000BF00BF00BF00BF00BF00BF00BF00BFAA
:109EC00000BF00BF00BF00BF00BF00BF00BF00BF9A
:109ED00000BF00BF00BF00BF00BF00BF00BF00BF8A
:109EE00000BF00BF00BF00BF00BF00BF00BF00BF7A
:109EF00000BF00BF00BF3EE705B030BD70B50488AD
:109F00009DF810508C4215D984792CB1624363437B
:109F10006543120A1B0A2D0A866801EB410100798C
:109F20007418022804F102000BBF7354725462705B
:109F30006370057070BD0388F0B58B421AD98379C0
:109F4000C2F30747C2F30725D2B22BB15F435D438B
:109F50005A433F0A2D0A120A8668037901EB410130
:109F60007418022B04F102030BBF75547754677009
:109F700065701A70F0BD000013B5084C0021009107
:109F80000A460B462046FDF7E3FA0549054A2046F6
:109F900002B0BDE8104009F029BD00BF90170020B5
:109FA000195A0008F0070020002100F004B80E4BF9
:109FB0005B58435004310D480D4B42189A42FFF450
:109FC000F6AF0C4A00F003B8002342F8043B0A4BFA
:109FD0009A42FFF4F9AF03F0B1F9FCF7F5F8FCF79A
:109FE00075FBFCF73FF97047848F010800000020E3
:109FF0007C0400207C04002008210020FFF7FEBF25
:10A000000B0A017043700B0C090E8370C170043091
:10A0100070470170090A41700230704743185A783E
:10A02000435C03EB022080B2704710B543189A7866
:10A03000DC78415C120402EB046258780A4402EBBB
:10A04000002010BD73B544790023022C01930FD07A
:10A05000032C19D0012C2BD1164D2B692E4623B180
:10A060002B6901A898470246B8B9B16801201BE0E6
:10A07000104DEB682E4623B1EB6801A898470246C5
:10A0800058B9B16802200FE00A4D6B692E464BB1FA
:10A090006B6901A89847024620B1A9682046BDF81F
:10A0A000043003E0B16803200022134600F03CFCBA
:10A0B00002B070BD40180020072870B518D80129DB
:10A0C00016D80125854001FA00F0ED43094B1A68C6
:10A0D000BFF35F8F05EA0204044353E8001F914277
:10A0E00003D143E80046002EF7D1BFF35F8FEDD1D7
:10A0F00070BD00BF4C03002070B5012186B005463D
:10A10000FFF78CFF430404463BD5B0F5824F38D1AE
:10A1100028460521FFF782FF05EB8000EE1D002495
:10A12000C51DAE4206D030460221FFF777FF043648
:10A130000444F6E77B4BBFF35F8FD3E85F0F204407
:10A14000C3E8510F0029F8D1BFF35F8F03F10C0270
:10A15000BFF35F8F52E8000F204442E8000100295E
:10A16000F8D1BFF35F8F303BD96B9A6B914240F0CF
:10A17000CA8093F84020002A00F0C5809B6999208E
:10A1800031E024F4FF4020F07F0080B2002800F08E
:10A19000978048F210039C4228D00CD8B4F5004FA9
:10A1A00040F2BC8048F202039C4215D948F20403F5
:10A1B0009C4211D0B2E048F280039C420CD004D8FB
:10A1C00048F240039C424FD0A8E0B4F5024F03D0C0
:10A1D000B4F5084F6BD0A1E0534B9A69002A00F008
:10A1E00092809B69204600210A4667E00023EA1816
:10A1F00052790DF803200133042BF8D16B7A05F165
:10A200000D008DF80430AB7A8DF80530EB7A8DF8BF
:10A2100006302B7B8DF80730002300AA1A44C15C5E
:10A220000133042B1172F8D105F11100002300AAAB
:10A230001A44C15C0133042B1173F8D105F11500E8
:10A24000002300AA1A44C15C0133042B1174F8D115
:10A250002B798DF81430344B9A69002A53D09B69BE
:10A2600020466946152229E0053500212846FFF7DA
:10A27000DCFE042100902846FFF7D7FE082101905C
:10A280002846FFF7D2FE0C2102902846FFF7CDFEAC
:10A29000102103902846FFF7C8FE234B04909A69CB
:10A2A000002A30D09B6920466946142206E01E4BE6
:10A2B0009A6942B39B692046691D0122984722E0B2
:10A2C00041F203039C4205D0A4F580530E3B9BB2A0
:10A2D000012B1AD86C1D20460421FFF7A6FE393049
:10A2E0001CD12A79104B00212046DA62FFF79DFE2F
:10A2F000042105462046FFF798FE393003D1284651
:10A300000121FFF7D9FE012009E0074B1B889BB212
:10A310009C4204D0B4F5805FF5D100E0002006B087
:10A3200070BD00BF701800204018002070B50E4CA2
:10A330006688B6B2B6B1606805782B1F5D425D4194
:10A340002DB1FFF7D9FE003018BF012000E02846EC
:10A35000064618B935B194F841301BB90023638023
:10A3600001F076FD304670BD401800202DE9F04F19
:10A3700085B004468A46914602F0A6FE002501906B
:10A38000DFF80883B8F8023046469BB2002B40F055
:10A39000938003F055FC02F097FE0290029A019B15
:10A3A000D31A0393039B002B03DA019B029A1344F5
:10A3B0000393B54B1B68002BE2D0039A9A42DFD37C
:10A3C000338841F207029BB2934227D841F206023A
:10A3D000934261D240F2022293425DD00FD80C2BFF
:10A3E00008D8082B58D2002B4FD0062B88BF00234B
:10A3F0005AD851E00D2B4CD040F201220BE041F233
:10A40000020293424BD8B3F5805F45D8B3F5017F84
:10A410003FD940F20722934237D13AE041F211028C
:10A42000934236D014D841F20B02934234D005D86F
:10A4300041F2090293422FD031D82AE041F20F02B3
:10A4400093422CD028D841F20D02934227D01CE031
:10A4500042F2060293421CD007D8B3F5005F14D92C
:10A4600042F20402934221D813E0B3F5804F00F08A
:10A47000F28105D8A3F50053083B012B09D904E06C
:10A4800044F20B02934200F0E6810B2003F04AF8FD
:10A49000E1E1FF232370DEE14FF0FF3304E04FF0F2
:10A4A000FF3323606360D6E12360D4E120460021BE
:10A4B0003A2209F03CFBCEE1D8F804603378042B53
:10A4C00040F07D8101213046FFF7A8FD054630466A
:10A4D000FFF712FE0146002840F0668141F20703B3
:10A4E0009D4206F1050752D841F206039D4280F0D5
:10A4F000AC8040F202239D4200F0A78011D80C2DC1
:10A5000009D8082D80F0A180002D00F04D81062D86
:10A5100000F2E88099E00D2D00F0948040F20123D4
:10A520007EE041F202039D4218D8B5F5805F00F24B
:10A530008C80B5F5017F40F2858040F207239D4273
:10A5400040F032813379384604F8013B0021FFF7AF
:10A550006CFD01462046FFF753FD25E141F204035F
:10A560009D4200F0958040F2AB8000213846FFF715
:10A570005CFD042120603846FFF757FD083444F89D
:10A58000040C06F10D03224606F11D0175E041F2AF
:10A5900011039D4256D02BD841F20B039D4254D05B
:10A5A0001CD841F209039D424FD000F29680002151
:10A5B0003846FFF73AFD042120603846FFF735FDA5
:10A5C000082160603846FFF730FD0C21A060384656
:10A5D000FFF72BFD04F10C0BE060E4E041F20F0308
:10A5E0009D426DD037D841F20D039D4250D0DBE043
:10A5F00042F205039D4200F0998007D841F2120310
:10A600009D4235D0B5F5005F1CD8CDE042F209037C
:10A610009D4208D842F208039D4213D242F206033B
:10A620009D420FD0C0E044F20B039D4240F0BC803D
:10A63000737938460121A8F83030FFF7EFFCA8F80D
:10A640003200B1E033792370AEE038460021FFF7E5
:10A65000ECFC2060A8E000213846FFF7E6FCA346AA
:10A660004BF8040B04213846FFF7DFFC60609AE0EA
:10A670003846FFF7D3FC208096E053F8040B8B425A
:10A6800042F8040BF9D18FE0981700204018002001
:10A6900000213846FFF7C9FC042120603846FFF747
:10A6A000C4FC082160603846FFF7BFFCE36804F192
:10A6B000080B3933A06076D10121FFF7FDFC72E071
:10A6C00000213846FFF7B1FC042120603846FFF72F
:10A6D000ACFC083444F8040C66E0337923713B6821
:10A6E000236061E000213846FFF79FFC04212060D1
:10A6F0003846FFF79AFC082160603846FFF78EFC69
:10A700000A21A0603846FFF789FC0C3444F8020C9B
:10A7100006F11103224606F1350153F8040B8B4272
:10A7200042F8040BF9D11B8813803DE073185B7964
:10A73000635401310429F9D106F109000023C15CF9
:10A74000E2180133042B1171F9D106F10D00002339
:10A75000C15CE2180133042B1172F9D106F111002A
:10A760000023C15CE2180133042B1173F9D106F107
:10A7700015000023C15CE2180133042B1174F9D1D8
:10A7800006F119000023C15CE2180133062B117594
:10A79000F9D106F11F000023C15CE2180133202B20
:10A7A0009176F9D100E05C46B8F800202C4B92B2CB
:10A7B000954236D100221A8083F8412031E0B8F862
:10A7C00036309BB26BB33046032196F802B0FFF7E8
:10A7D00025FC0746BAF1000F0BD00421701DFFF7CE
:10A7E00024FC06F115010246C9F80000504609F0A4
:10A7F0007AF9CBEB07077B1EB3F5806F07D20BF11D
:10A800000501204631443A4609F06DF901E04FF068
:10A81000FF37B9F1000F01D0C9F800700023A8F884
:10A8200036300023A8F8023001F012FB3378042BF5
:10A8300005D1B5F5805F02D13046FFF703FCB8F8CB
:10A8400000309BB2002B7FF49BAD054BDB8E9BB29F
:10A85000002B7FF495AD002005B0BDE8F08F00BF60
:10A860004018002007284FF0010308D803FA00F031
:10A87000044A126810420CBF00200120704718469D
:10A88000704700BF4C030020034B1880084600218E
:10A890000A46FFF76BBD00BF4018002010B5034B00
:10A8A0000124DC86BDE81040FFF760BD40180020A1
:10A8B00038B50346154601224A710C46881D1946D3
:10A8C000FFF7A7FB291D0570204601F02BFB002098
:10A8D00038BD38B5BDF814500C462B44D518ADB270
:10A8E00002216171A071E271294604F10800FFF7AD
:10A8F00090FB691D204689B201F014FB002038BD91
:10A9000038B513440C469DB202216171A0712946ED
:10A91000E27104F10800FFF77CFB691D204689B253
:10A92000BDE8384001F0FEBA2DE9F84F1C4604F1AD
:10A93000020B032301F107091FFA8BFB88710D46F7
:10A940004B71484659461646FFF763FBB4F57A7FCC
:10A95000824605F10B0812D82146FFF75AFB214623
:10A960005046FFF756FB31464046224609F0BBF8F9
:10A97000A11D284689B2BDE8F84F01F0D3BA4FF4C3
:10A980007A77B4FBF7F30BEB430189B2FFF741FB96
:10A9900039465046FFF73DFB314640463A4609F0FE
:10A9A000A2F8A4F57A74284640F2EE31A4B23E44EF
:10A9B00001F0B8FAB4F57A7F84BFA4F57A74A7B22F
:10A9C000A84688BF4FF47A74314628F8054F4846A8
:10A9D000224698BF002709F086F8A11C404689B29C
:10A9E000264401F09FFA0FB13C46E3E7BDE8F88F3B
:10A9F000F7B51E46FF238DF80730194B00259C68DC
:10AA0000475D63190135042D5F72F9D100200D5C9B
:10AA10002318013004285D73F9D10021505C6318BC
:10AA2000013104295874F9D104F115000021FFF710
:10AA3000E7FA0022B35C83540132042AFAD121469A
:10AA4000142242F20100FFF733FF42F201000DF140
:10AA50000701FFF719FF9DF9070003B0F0BD00BF24
:10AA6000401800202DE9F3411F46FF238DF80730E1
:10AA70001E4B0646D3F8088033680C46013B082B72
:10AA80009CBF0A2333600B6808F10900013B082BC7
:10AA90009CBF0A230B6013681546013B082B9CBF23
:10AAA0000A2313603B68013B082B9CBF0A233B60D1
:10AAB0003168FFF7A5FA2168FFF7A2FA2968FFF7C6
:10AAC0009FFA3968FFF79CFA4146142242F20900C6
:10AAD000FFF7EEFE42F209000DF10701FFF7D4FE89
